:060000000A128A11FC2F18
:100EBC00EF308316031385000730890080309F00C4
:100ECC000800F5008030831603139F007508F200AC
:100EDC0002300310F20DFF3E031D6F2F0310720D35
:100EEC008138831203139F004230F200F20B7C2FE7
:100EFC000000831203131F151F19852F862F822FB5
:100F0C001E08F400831603131E08F3007408F10086
:100F1C007308F0000800FA01FB0183160313860125
:100F2C000A128A115E270A128A11FB30F600760823
:100F3C008316031387050F30831203139700FF30BA
:100F4C008316031392007D30831203139500121540
:100F5C0000300A128A1167270A128A117108F900E7
:100F6C007008F80001300A128A1167270A128A11D8
:100F7C007108FB007008FA0079087B02031DC82F6A
:100F8C0078087A020318CB2FCC2FDA2FFA30831281
:100F9C00031315020318D32FD42FEF2F0130F600B3
:100FAC00760895071215EF2F7B087902031DE02FA9
:100FBC007A0878020318E32FE42FEF2F0630831200
:100FCC0003131502031CEB2FEC2FEF2F01309502AE
:100FDC00D82F0630F7003030F600F60BF32FF70B56
:100FEC00F32F0000AE2F0A128A11002883010A1277
:040FFC008A11912F96
:02400E003A3F37
:00000001FF
