:100000000A128A11FC2FFF1B0D2883137F188317F8
:100010000008840A0319FF0A080000308A00040857
:10002000840A820700340134003408340034403438
:10003000003400340234003410340034803401348D
:1000400000340A34003464340034E83403341034A7
:1000500027340134003410340034003401340034C7
:10006000103453344534543450344F3449344E34BE
:10007000543420343D342034253420343434643432
:100080002034263420344634453445344434423414
:10009000413443344B3420343D342034253420342F
:1000A000343464340D340A3400343034313432346E
:1000B00033343434353436343734383439344134E5
:1000C00042344334443445344634003430343134DB
:1000D00032343334343435343634373438343934D4
:1000E00061346234633464346534663400342834F3
:0C00F0006E3475346C346C3429340034E8
:100104000800EF3083160313850007308900803020
:100114009F000800F501F601700871040319932883
:100124009428CB28F701F70AA22801300310F00D18
:10013400F10DFF3E031D98280130F4007408F70701
:10014400F11FA528A628972801300310F50DF60DF8
:10015400FF3E031DA72871087302031DB32870080E
:100164007202031CB628B728BE287008F202710870
:10017400031CF303F302751401300310F10CF00CAB
:10018400FF3E031DBF280130F702031DCA28CB28F8
:10019400A6287608F1007508F000080083160313FA
:1001A400D401D50186010A128A1183200A128A1108
:1001B400003083120313A3000030A2002530A100F5
:1001C4008030A0000A128A117B210A128A11FB30A6
:1001D40083120313BF003F088316031387050F30F0
:1001E400831203139700FF308316031392007D30AC
:1001F40083120313950012150030F000F100323021
:10020400F2000030F300A0300A128A15D0260A1238
:100214008A11323083120313A0000030A1001F3072
:10022400A2008030A3000030A400A5000030A60086
:10023400A700A0300A128A115C220A128A11A03087
:100244000A128A15F0260A128A1100300A128A1537
:1002540036270A128A11710883160313D300700813
:10026400D20001300A128A1536270A128A1171083F
:1002740083160313D5007008D40053085502031DD8
:100284004529520854020318482949295729FA30A4
:100294008312031315020318502951296C290130C4
:1002A400BF003F08950712156C2955085302031D1A
:1002B4005D29540852020318602961296C2906300B
:1002C400831203131502031C682969296C29013060
:1002D40095025529063083120313C0002F30BF0046
:1002E400BF0B7229C00B7229772927290A128A1198
:1002F4000028803083160313870083120313200819
:10030400A4002108A5002208A6002308A70006309F
:100314000310A40DA50DA60DA70DFF3E031D8A29EC
:100324002708F3002608F2002508F1002408F0004D
:100334002008A8002108A9002208AA002308AB006D
:1003440006300310A80DA90DAA0DAB0DFF3E031D29
:10035400A3290030AC002430AD00F430AE000030EE
:10036400AF002808AC022908031C290FBA29BB29AD
:10037400AD022A08031C2A0FC029C129AE022B088A
:10038400031C2B0FC629C729AF022F08F7002E081C
:10039400F6002D08F5002C08F4000A128A159A2795
:1003A4000A128A11710883120313B1007008B00095
:1003B40001303102003003193002031CE229E32921
:1003C4003F2A2008A4002108A5002208A60023082B
:1003D400A70004300310A40DA50DA60DA70DFF3E24
:1003E400031DEC292708F3002608F2002508F10074
:1003F4002408F0002008A8002108A9002208AA0067
:100404002308AB0004300310A80DA90DAA0DAB0DF1
:10041400FF3E031D052A0030AC002430AD00F4304B
:10042400AE000030AF002808AC022908031C290FD5
:100434001C2A1D2AAD022A08031C2A0F222A232A59
:10044400AE022B08031C2B0F282A292AAF022F08DF
:10045400F7002E08F6002D08F5002C08F4000A1207
:100464008A159A270A128A11710883120313B1009C
:100474007008B0008316031318150130831231027B
:100484000030031930020318482A492A5B2A30082D
:1004940083160313990018128312031398178316F3
:1004A40003138717071783120313181683160313EE
:1004B4009816080083120313B8002030A8002808F7
:1004C400B500EB2F25303C060319692A6A2A712AE4
:1004D4003C080A128A1182200A128A11EB2FBA01EF
:1004E400BB01BD01BE01822ABD150130A800280848
:1004F400B807822A3D14772ABE15772A3D15772A34
:10050400380884000008A800A9012908003A031942
:100514008C2A9A2A2808203A03197C2A033A0319B8
:100524007E2A0E3A0319762A1D3A0319802A9A2A3A
:10053400BD1D9D2A9E2AA22AFB30BD05FF30BE05A3
:100544003808840000080A128A15A9260A128A119A
:10055400031CAD2AAE2AE82A83120313BA01BB0195
:100564000A30F0000030F100831203133B08F3005B
:100574003A08F2000A128A1511270A128A11710820
:1005840083120313BB007008BA0038088400831375
:100594000008D03EA800FF3003180030A900280846
:1005A400BA070318BB0A2908BB070130A8002808AA
:1005B400B8073808840000080A128A15A9260A1206
:1005C4008A110318E62AE72AB22A022B831203139C
:1005D400380884002A3083130006031DF22AF32A04
:1005E400022B350884000008BA00840A0008BB0006
:1005F4000230A8002808B5070130A8002808B80769
:1006040083120313380884002E3083130006031D5D
:100614000C2B0D2B5E2B3E170130A8002808B807C1
:10062400380884002A300006031D192B1A2B322B9C
:10063400350884000008A8002808B9000230A80082
:100644002808B507B91F272B282B2D2BB901FF30FC
:10065400BD05BF30BE050130A8002808B8073F2CEF
:10066400B901512B831203133908A8002808F0009C
:100674000A300A128A15BB260A128A11831203133E
:10068400A9002908B9003808840083130008D03E63
:10069400A8002808B9070130A8002808B8073808B6
:1006A400840000080A128A15A9260A128A1103185E
:1006B4005C2B5D2B342B3F2CB9013F2C3D176F2C49
:1006C400BD16BD176F2C350884000008B100840ADC
:1006D40000088403B2000230A8002808B5073108D6
:1006E4003204031D762B772B7B2B6530B1008030D1
:1006F400B200B301B401842B0130B3070318B40A68
:100704000030B40733083107840032080318320A72
:10071400FF000A128A1103200A128A11003A031DEB
:10072400942B952B7E2B39080319992B9A2BB62BD6
:100734003908A800A901A81BA9032908803AAA001E
:100744003408803A2A02031DA92B3308280203180F
:10075400AC2BAD2BB62B831203133908A800A901C7
:100764002808B3002908B400831203133B08340299
:10077400031DBE2B3A0833020318C12BC22BC92B0D
:100784003308BA023408031CBB03BB02CB2BBA01E7
:10079400BB01BD19CE2BCF2BFD2BD62B20300A123B
:1007A4008A1182200A128A11FF3083120313BA07B6
:1007B4000318BB0AFF30BB073A0A031DE52B3B0AAB
:1007C400031DE52BE62BD02BFD2B3208FF0031084F
:1007D40084000A128A1103200A128A110A128A1149
:1007E40082200A128A11013083120313B1070318FD
:1007F400B20A0030B2070130B3020030031CB40364
:10080400B402330A031D0A2C340A031D0A2C0B2CD0
:10081400E72BBD1D0E2C0F2CEB2F162C20300A12AB
:100824008A1182200A128A11FF3083120313BA0735
:100834000318BB0AFF30BB073A0A031D252C3B0AE9
:10084400031D252C262C102CEB2F350884000008C2
:10085400A8002808BC000230A8002808B5073C30CE
:10086400B1000030B2000130B3000030B400952B69
:10087400C030BD040030BE046F2C8312031338084B
:1008840084000130B80783130008BC00A800A90144
:100894002908003A03194F2C312C2808003A03196F
:1008A400FB2F583A0319622B3B3A0319272C073ABA
:1008B40003196F2C0D3A03196F2C063A0319602B98
:1008C4001F3A0319622B033A0319652B063A0319DD
:1008D4003A2C0D3A0319632B312CC0303D05A80086
:1008E40000303E05A90028082904031D7A2C7B2C1E
:1008F400942C350884000008B600840A0008B70068
:100904000230A8002808B507B71F892C8A2C9F2C11
:100914000330BD040030BE04B609B709B60A031992
:10092400B70A9F2C350884000008B600840A000822
:10093400B7000230A8002808B5073908031DA32C06
:10094400A42C3F2D36083704031DA92CAA2C3F2DB7
:100954000130A8002808B9073F2DBC01BC0A0530A6
:100964003C06031DB62CB72CB82C562D3C08A80009
:1009740028070D3E84000A128A110D200A128A11DA
:10098400A9000A128A110D200A128A11AA002A0843
:100994003702031DCF2C290836020318D22CD32C7E
:1009A400D42C562D0130A8002808BC0705303C067D
:1009B400031DDD2CDE2CB82C562DBC01BC0A0430E2
:1009C4003C06031DE62CE72CE82C562D3C08A80019
:1009D4002807173E84000A128A110D200A128A1170
:1009E400A9000A128A110D200A128A11AA002A08E3
:1009F4003702031DFF2C290836020318022D032D8C
:100A0400042D562D0130A8002808BC0704303C06EC
:100A1400031D0D2D0E2DE82C562DBC01BC0A0630ED
:100A24003C06031D162D172D182D562D3C08A80025
:100A34002807013E84000A128A110D200A128A1125
:100A4400A9000A128A110D200A128A11AA002A0882
:100A54003702031D2F2D290836020318322D332D9A
:100A6400342D562D0130A8002808BC0706303C065A
:100A7400031D3D2D3E2D182D562D3D08C039A800CF
:100A8400A9012908003A0319482D562D2808003ACF
:100A94000319AF2C403A03190F2DC03A0319DF2C68
:100AA400403A0319AF2C562D3908A800A901A81BF8
:100AB400A9032908803A803C031D622D28083C02C2
:100AC4000318652D662D6D2D831203133908A800B4
:100AD4002808BC00872D831203133908A800A90134
:100AE400A81BA9032908803AAA0080302A02031D02
:100AF4007D2D3C0828020318802D812D872D83121B
:100B040003133C08A8002808B900831203133A0809
:100B14003B0403198E2D8F2DA12D03303D05A80014
:100B240000303E05A9002808290403199A2D9B2D9D
:100B3400A12DFF30BA070318BB0AFF30BB073E1FC5
:100B4400A42DA52DCA2D3908A800A901A81BA90305
:100B54002908803AAA003B08803A2A02031DB42DD2
:100B64003A0828020318B72DB82DC62D8312031393
:100B74003908A800A901A81BA9032808BA02290852
:100B8400031CBB03BB02CA2D83120313BA01BB01AE
:100B9400C4303D05A80008303E05A90040302806B1
:100BA400083003192906031DD82DD92DE62D3A083E
:100BB4003B040319DE2DDF2D0F2EFF30BA07031877
:100BC400BB0AFF30BB070F2EC0303D05A80008301C
:100BD4003E05A90080302806083003192906031DA4
:100BE400F42DF52D0F2E3B08803AFF0080307F0254
:100BF400031DFE2D03303A02031C012E022E0B2E80
:100C0400FE3083120313BA070318BB0AFF30BB0775
:100C14000F2E83120313BA01BB013B08803A803CB8
:100C2400031D162E3A083C020318192E1A2E262EDE
:100C3400831203133C08A800A9012808BA02290852
:100C4400031CBB03BB022A2E83120313BA01BB018C
:100C54003D1D2D2E2E2E932E03303D05A800003071
:100C64003E05A900280829040319392E3A2E412EDD
:100C74002D300A128A1182200A128A11762E3D1C06
:100C8400442E452E4C2E20300A128A1182200A123C
:100C94008A11762EC0303D05A80008303E05A90013
:100CA40080302806083003192906031D5A2E5B2EAE
:100CB400762E30300A128A1182200A128A11831287
:100CC4000313BD1A662E672E6C2E7830AB000030ED
:100CD400AC00702E5830AB000030AC002B080A1268
:100CE4008A1182200A128A11831203133A083B04E0
:100CF40003197D2E7E2EBB2F30300A128A118220DA
:100D04000A128A11FF3083120313BA070318BB0AAD
:100D1400FF30BB073A083B04031D912E922E7E2E12
:100D2400BB2F3A083B040319982E992EB12EBD19F6
:100D34009C2E9D2EB12E20300A128A1182200A1276
:100D44008A11FF3083120313BA070318BB0AFF305A
:100D5400BB073A083B04031DB02EB12E9D2E033071
:100D64003D05A80000303E05A90028082904031900
:100D7400BC2EBD2EC42E2D300A128A1182200A12D6
:100D84008A11CE2E3D1CC72EC82ECE2E20300A121C
:100D94008A1182200A128A11C030831203133D057E
:100DA400A80008303E05A900403028060830031981
:100DB4002906031DDE2EDF2EE62E30300A128A119C
:100DC40082200A128A11BB2FC0303D05A8000830CA
:100DD4003E05A90080302806083003192906031DA2
:100DE400F42EF52E112F30300A128A1182200A12A5
:100DF4008A1183120313BD1A002F012F062F783096
:100E0400AD000030AE000A2F5830AD000030AE0007
:100E14002D080A128A1182200A128A11BB2FBB2FB5
:100E24000A30F8000030F9003908A80028070D3E00
:100E340084000A128A110D200A128A11F0000A1283
:100E44008A110D200A128A11F1003708F3003608BE
:100E5400F2000A128A118C200A128A117108FB000E
:100E64007008FA000A128A1560270A128A11780893
:100E7400303E83120313A9002908BC00B52F39089A
:100E8400A8002807173E84000A128A110D200A12AE
:100E94008A11F0000A128A110D200A128A11F10037
:100EA4003708F3003608F2000A128A118C200A125D
:100EB4008A1170080F3983120313A9002908AF009F
:100EC400BD1A652F662F6B2F5430A8002808B00078
:100ED4006F2F4330A8002808B0002F083007840083
:100EE4000A128A110D200A128A11A8002808BC00CF
:100EF400B52F3908A8002807013E84000A128A1178
:100F04000D200A128A11F0000A128A110D200A1209
:100F14008A11F1003708F3003608F2000A128A1128
:100F24008C200A128A1170080739303E8312031389
:100F3400A9002908BC00B52F3D08C039A800A901A3
:100F44002908003A0319A72FB52F2808003A0319D6
:100F5400122F403A03197B2FC03A0319412F403A0C
:100F64000319122FB52F3C080A128A1182200A1283
:100F74008A11FF3083120313A8002808B907390A1D
:100F8400031DC52FC62F9E2FBD1DC92FCA2FEB2FA2
:100F94003B08803AFF0080307F02031DD32F0130CD
:100FA4003A02031CD62FD72FEB2F20300A128A11B6
:100FB40082200A128A11FF3083120313BA0703181E
:100FC400BB0AFF30BB073A083B04031DEA2FEB2F93
:100FD400D72F83120313380884000130B807831312
:100FE4000008A8002808BC003C08031DFA2FFB2FAA
:0C0FF400642A080083010A128A11D02828
:101D3200F000831203130C1E9F2EA02E9A2E700801
:101D4200990083160313981CA72EA82EA22E080012
:101D5200F100F0013A3071020318B02EB12EB92E03
:101D620030307102031CB62EB72EB92EF001F00AE4
:101D7200700C0800F300F201731CC02EC12EC52E98
:101D82007008F1007108F2070310F00D0310F30C54
:101D92007308031DCD2ECE2EBD2E72080800F5004D
:101DA2007508F4007408F600E12E7008F400760855
:101DB20084007408831380000130F4007408F6076D
:101DC2000130F2020030031CF303F302720A031D16
:101DD200EE2E730A031DEE2EEF2ED62E0800F4000F
:101DE200F201F301052F72087407F10071088400F3
:101DF20000080A128A1599260A128A150130F2077A
:101E02000318F30A0030F30772087407F10071082F
:101E1200840083130008031D0F2F102FF42E0800D7
:101E2200F401F501701C162F172F1D2F7208F407ED
:101E32000318F50A7308F50701300310F20DF30DCC
:101E4200FF3E031D1E2F01300310F10CF00CFF3E6C
:101E5200031D252F70087104031D302F312F132FFE
:101E62007508F1007408F0000800F5008030831650
:101E720003139F007508F20002300310F20DFF3EBB
:101E8200031D3E2F0310720D8138831203139F002E
:101E92004230F200F20B4B2F0000831203131F1586
:101EA2001F19542F552F512F1E08F40083160313A8
:101EB2001E08F3007408F1007308F00008007808A7
:101EC20079040319652F662F952FFD01FD0A742FE2
:101ED20001300310F80DF90DFF3E031D6A2F01308A
:101EE200FC007C08FD07F91F772F782F692F7908EE
:101EF2007B02031D7E2F78087A02031C812F822F1A
:101F0200882F7808FA027908031CFB03FB020130D0
:101F12000310F90CF80CFF3E031D892F0130FD025E
:101F2200031D942F952F782F7B08F9007A08F8006B
:101F320008000030FC000030FB000030FA000030E6
:101F4200F90073087204710470040319A92FAA2FEF
:101F5200F72FFD01FD0ABA2F0130F8000310F00D32
:101F6200F10DF20DF30DF80BAF2F0130F8007808E8
:101F7200FD07F31FBD2FBE2FAD2F0130F800031058
:101F8200F90DFA0DFB0DFC0DF80BC02F730877024B
:101F9200031DD52F72087602031DD52F7108750215
:101FA200031DD52F70087402031CD82FD92FE82FD8
:101FB2007008F4027108031C710FF5027208031C09
:101FC200720FF6027308031C730FF70279140130C3
:101FD2000310F30CF20CF10CF00CFF3E031DE92F81
:101FE2000130FD02031DF62FF72FBE2F7C08F300F0
:0E1FF2007B08F2007A08F1007908F000080080
:02400E003A3F37
:00000001FF
