:100000000A128A11EE2F83120313A2000430A300F8
:100010000030A400023023062404031D10281128F8
:1000200021282E30A00023082207A10021088400E7
:10003000200883138000FF30A3070318A40AFF30B1
:10004000A4070A30F0000030F1007C08F3007B08C0
:10005000F2000A128A15EF210A128A117008303E46
:1000600083120313A00023082207A10021088400A3
:100070002008831380000A30F0000030F1007C0873
:10008000F3007B08F2000A128A1567220A128A110D
:100090007108FC007008FB00FF3083120313A307F4
:1000A0000318A40AFF30A407A41F572858280A28B9
:1000B00008000030831203132805B0000030290522
:1000C000B10080302A05B2007F302B05B300330821
:1000D000320431043004031D6E286F287728003065
:1000E000AB000030AA000030A9000030A8000030AA
:1000F0002C05B00000302D05B10080302E05B20077
:100100007F302F05B3003308320431043004031D5F
:100110008A288B2893280030AF000030AE000030D2
:10012000AD000030AC00AB1F96289728BB280030EC
:10013000B0000030B1000030B2008030B3002808B9
:10014000B0022908031C290FA628A728B1022A08F3
:10015000031C2A0FAC28AD28B2022B08031C2B0F5E
:10016000B228B328B3023308AB003208AA00310822
:10017000A9003008A800AF1FBE28BF28E328003020
:10018000B0000030B1000030B2008030B3002C0865
:10019000B0022D08031C2D0FCE28CF28B1022E0847
:1001A000031C2E0FD428D528B2022F08031C2F0FB2
:1001B000DA28DB28B3023308AF003208AE0031087A
:1001C000AD003008AC008030AB068030AF062F08A1
:1001D0002B02031DF5282E082A02031DF5282D08E1
:1001E0002902031DF5282C0828020318F828F928ED
:1001F000FB280310FC280314080083120313A0003B
:1002000020080319042905291929F71F0829092994
:1002100019297409A2007509A3007609A4007709B9
:10022000A500A20A0319A30A0319A40A0319A50A1F
:1002300021297708A5007608A4007508A300740892
:10024000A2007708760475047404031D282929295F
:1002500032290030F7000030F6000030F5000030A1
:10026000F400B8299630F8007808A100442901303C
:10027000F8007808A10701300310A50CA40CA30C0A
:10028000A20CFF3E031D3C29FE302505031D492914
:100290004A29372966290130F8007808A10701307A
:1002A000A207003003180130A30700300318013003
:1002B000A407003003180130A50701300310A50C76
:1002C000A40CA30CA20CFF3E031D5E29FF302505E4
:1002D000031D6B296C294B2978290130A1020130BB
:1002E000F8000310A20DA30DA40DA50DF80B7129A4
:1002F000A41B7B297C298229023021020318812931
:1003000082296D292118852986298E29FF30A20589
:10031000FF30A3057F30A405FF30A5050310A10C15
:100320002108F800F901FA01FB0118300310F80D5B
:10033000F90DFA0DFB0DFF3E031D96297808A20466
:100340007908A3047A08A4047B08A50420080319EB
:10035000AA29AB29B029F71FAE29AF29B029A517C3
:100360002508F7002408F6002308F5002208F40009
:10037000080083160313B401B40AF7308312031381
:10038000DA005A088316031387050A128A155F20BC
:100390000A128A110A128A1529220A128A11803039
:1003A00083120313A0002530A1000A128A157F21B1
:1003B0000A128A1100300A128A15B6210A128A110D
:1003C000F001F00A00300A128A15D9200A128A11A7
:1003D00000300A168A119E270A128A11831203130B
:1003E00087150130F1008030F2000A128A15B3201F
:1003F0000A128A11F40100300A168A11CE270A1255
:100400008A111430F4008030F5000A128A158D200C
:100410000A128A11153083120313DC004B30DB0003
:10042000BD30DA00DA0B122ADB0B122ADC0B122A9F
:10043000192A0D3083120313DB00FB30DA00DA0BCC
:100440001F2ADB0B1F2A053083160313AA07031884
:10045000AB0A0030AB07443083120313C300803073
:10046000C2000030C1000030C0004430A900963006
:10047000A8000030A7000030A60000300A128A153C
:100480006B200A128A11700883120313DA007108B4
:10049000DB00DC01DD015D08F7005C08F6005B08AD
:1004A000F5005A08F40000300A128A11FD200A12E1
:1004B0008A11770883120313AD007608AC00750823
:1004C000AB007408AA000A128A118D240A128A113C
:1004D000831203132908C7002808C6002708C5008F
:1004E0002608C4000A128A158B230A128A11831265
:1004F0000313430883160313AF0083120313420848
:1005000083160313AE0083120313410883160313EB
:10051000AD0083120313400883160313AC0044306C
:1005200083120313C3008030C2000030C1000030CA
:10053000C0004430A9009630A8000030A700003069
:10054000A60001300A128A156B200A128A1170085F
:1005500083120313DA007108DB00DC01DD015D08A2
:10056000F7005C08F6005B08F5005A08F40000305C
:100570000A128A11FD200A128A11770883120313C6
:10058000AD007608AC007508AB007408AA000A122A
:100590008A118D240A128A11831203132908C700B5
:1005A0002808C6002708C5002608C4000A128A15B4
:1005B0008B230A128A118312031343088316031331
:1005C000B30083120313420883160313B20083128D
:1005D0000313410883160313B10083120313400869
:1005E00083160313B0002B08803AFF0083307F028C
:1005F000031DFC2AE8302A02031CFF2A002BD22B01
:1006000083160313AA01AB012F08F3002E08F20092
:100610002D08F1002C08F0000A128A1511230A1285
:100620008A117108FC007008FB00A0300A128A11C0
:1006300003200A128A110A168A11A2270A128A11A5
:10064000F40100300A168A11CE270A128A112530C9
:10065000F4008030F5000A128A158D200A128A11E2
:10066000F4010A300A168A11CE270A128A11A03024
:10067000F4000030F5000A128A158D200A128A1142
:10068000F4010F300A168A11CE270A128A114C3053
:10069000F4008030F5000A128A158D200A128A11A2
:1006A0002530F1008030F2000A128A15B3200A12B8
:1006B0008A11A030F1000030F2000A128A15B3202E
:1006C0000A128A114830F1008030F2000A128A15AD
:1006D000B3200A128A11831603133308F300320879
:1006E000F2003108F1003008F0000A128A151123D7
:1006F0000A128A117108FC007008FB00A0300A126F
:100700008A1103200A128A11F401F40A00300A1631
:100710008A11CE270A128A113330F4008030F50096
:100720000A128A158D200A128A11F401F40A0A307D
:100730000A168A11CE270A128A11A030F40000305E
:10074000F5000A128A158D200A128A11F401F40AA2
:100750000F300A168A11CE270A128A114C30F40083
:100760008030F5000A128A158D200A128A113E3057
:10077000F1008030F2000A128A15B3200A128A11A1
:10078000A030F1000030F2000A128A15B3200A12DC
:100790008A114830F1008030F2000A128A15B32025
:1007A0000A128A114130F300A030F2000030F1004B
:1007B0000030F000831603132F08F7002E08F60010
:1007C0002D08F5002C08F4000A128A1568250A1273
:1007D0008A11730883120313AB007208AA00710810
:1007E000A9007008A80083160313330883120313AB
:1007F000AF0083160313320883120313AE0083166F
:100800000313310883120313AD008316031330085A
:1008100083120313AC000A128A1159200A128A119A
:100820000318132C142C2A2C8316031334080319D1
:100830001A2C1B2C1D2C0130B40234088312031314
:10084000DA005A08F00000300A128A15D9200A127C
:100850008A11192A83160313330883120313AB007A
:1008600083160313320883120313AA00831603139B
:10087000310883120313A90083160313300883126F
:100880000313A800C130F300A030F2000030F100E3
:100890000030F000831603132F08F7002E08F6002F
:1008A0002D08F5002C08F4000A128A1568250A1292
:1008B0008A11730883120313AF007208AE00710827
:1008C000AD007008AC000A128A1159200A128A1170
:1008D00003186B2C6C2C892C6430831603133402A0
:1008E0000318732C742C7C2C013083120313DA0050
:1008F0005A0883160313B407340883120313DA006B
:100900005A08F00000300A128A15D9200A128A11FA
:10091000192A192A0A128A11002883120313290896
:100920008039AE002E08B3002908AE002E07AF00B4
:100930002F08B900A81F9D2C9E2C9F2C3914390814
:100940000319A32CA42CB32C390A031DA82CA92C01
:10095000B12C0030A9000030A8000030A700003002
:10096000A600A817BB2C0030A9000030A80000305A
:10097000A7000030A6002D088039AE002E08B3066F
:100980002D08AE002E07AF002F08B800AC1FC92CF1
:10099000CA2CCB2C381438080319CF2CD02CDF2CC0
:1009A000380A031DD42CD52CDD2C0030AD000030CE
:1009B000AC000030AB000030AA00AC17E72C0030D0
:1009C000AD000030AC000030AB000030AA003808A9
:1009D0000319EB2CEC2CF12C3908031DF02CF12C15
:1009E000FA2C0030A9000030A8000030A700003029
:1009F000A600ED2F2608AE002E08F0002C080A12E3
:100A00008A1500210A128A11710883120313BF008C
:100A10007008BE003E08AE00AF01B001B101310860
:100A2000B7003008B6002F08B5002E08B4003F0804
:100A3000AE00AF01B001B1013108BD003008BC000B
:100A40002F08BB002E08BA002708AE002E08F000C1
:100A50002B080A128A1500210A128A1171088312C2
:100A60000313BF007008BE003E08AE00AF01B00126
:100A7000B1012E08B4072F0803110318013E031912
:100A8000422DB507300803110318013E0319492D03
:100A9000B607310803110318013E0319502DB7079B
:100AA0003F08AE00AF01B001B1012E08BA072F0810
:100AB00003110318013E03195E2DBB073008031113
:100AC0000318013E0319652DBC07310803110318F3
:100AD000013E03196C2DBD072808AE002E08F0005A
:100AE0002A080A128A1500210A128A117108831233
:100AF0000313BF007008BE003E08AE00AF01B00196
:100B0000B1012E08B4072F0803110318013E031981
:100B10008A2DB507300803110318013E0319912DE2
:100B2000B607310803110318013E0319982DB707C2
:100B30003F08AE00AF01B001B1012E08BA072F087F
:100B400003110318013E0319A62DBB07300803113A
:100B50000318013E0319AD2DBC073108031103181A
:100B6000013E0319B42DBD070830AE000310B40DCB
:100B7000B50DB60DB70DAE0BB62D2708AE002E087D
:100B8000F0002A080A128A1500210A128A11710837
:100B900083120313BF007008BE003E08AE003F087A
:100BA000AF00B001B1012E08B4072F0803110318DC
:100BB000013E0319DC2DB507300803110318013E6F
:100BC0000319E32DB607310803110318013E031979
:100BD000EA2DB7072608AE002E08F0002B080A12EF
:100BE0008A1500210A128A11710883120313BF00AB
:100BF0007008BE003E08AE003F08AF00B001B10172
:100C00002E08B4072F0803110318013E0319092EFB
:100C1000B507300803110318013E0319102EB6075B
:100C2000310803110318013E0319172EB7070830C6
:100C3000AE000310B40DB50DB60DB70DAE0B192EE9
:100C40002608AE002E08F0002A080A128A15002194
:100C50000A128A11710883120313BF007008BE00C4
:100C60003E08AE003F08AF00B001B1012E08B40746
:100C70002F0803110318013E03193F2EB507300852
:100C800003110318013E0319462EB607310803115C
:100C90000318013E03194D2EB7072708AE002E0892
:100CA000F0002C080A128A1500210A128A11710814
:100CB00083120313BF007008BE003E08AE003F0859
:100CC000AF00B001B1012E08BA072F0803110318B5
:100CD000013E03196C2EBB07300803110318013EB7
:100CE0000319732EBC07310803110318013E0319C1
:100CF0007A2EBD072808AE002E08F0002B080A1235
:100D00008A1500210A128A11710883120313BF0089
:100D10007008BE003E08AE003F08AF00B001B10150
:100D20002E08BA072F0803110318013E0319992E44
:100D3000BB07300803110318013E0319A02EBC079E
:100D4000310803110318013E0319A72EBD07280817
:100D5000AE002E08F0002C080A128A1500210A1293
:100D60008A11710883120313BF007008BE003E0889
:100D7000AE003F08AF00B001B10108300310AE0D66
:100D8000AF0DB00DB10DFF3E031DBE2E2E08BA07EC
:100D90002F0803110318013E0319CF2EBB0730089B
:100DA00003110318013E0319D62EBC0731080311A5
:100DB0000318013E0319DD2EBD073408AE003508C7
:100DC000AF003608B0003708B10018300310B10C7E
:100DD000B00CAF0CAE0CFF3E031DE62E2E08BA077A
:100DE0002F0803110318013E0319F72EBB07300823
:100DF00003110318013E0319FE2EBC07310803112D
:100E00000318013E0319052FBD070830AE0003107B
:100E1000B40DB50DB60DB70DAE0B072F3908380759
:100E2000AE00AF01AF0D2E08823EBE002F080318A2
:100E3000013EFF3EBF00392F0130AE000310BA0D56
:100E4000BB0DBC0DBD0DAE0B1E2FB71F282F292FBC
:100E50002A2F3A140130AE000310B40DB50DB60DB3
:100E6000B70DAE0B2C2FFF30BE070318BF0AFF30A3
:100E7000BF07BC1F3C2F3D2F1C2FB801B71F412FB0
:100E8000422F5E2FFF303405AE00FF303505AF0036
:100E9000FF303605B0007F303705B100310830042F
:100EA0002F042E040319552F562F592FB801B80AB5
:100EB0005E2F3A1C5C2F5D2F5E2F562F38080319CA
:100EC000622F632F942F0130BA07003003180130CE
:100ED000BB07003003180130BC0700300318013095
:100EE000BD073D1C742F752F942F3A08AE003B08A8
:100EF000AF003C08B0003D08B1000130B200310D38
:100F0000B10CB00CAF0CAE0CB20B7F2F3108BD0092
:100F10003008BC002F08BB002E08BA000130BE0705
:100F20000318BF0A0030BF073F08803AFF00803037
:100F30007F02031D9D2FFF303E02031CA02FA12F17
:100F4000AC2F7F3083120313BD008030BC00003013
:100F5000BB000030BA00E12F831203133F08803A30
:100F6000FF0080307F02031DB72F01303E020318BF
:100F7000BA2FBB2FC72F003083120313BD000030E0
:100F8000BC000030BB000030BA00B301E12F831277
:100F900003133E08AE002E08B900FF30BA05FF303B
:100FA000BB057F30BC050030BD05391CD82FD92FBB
:100FB000DA2FBC173908AE0003102E0CAF002F0833
:100FC000BD003308AE002E08BD043D08A9003C0852
:100FD000A8003B08A7003A08A60008008313653064
:100FE000FD001730FE00A930FF005E3084000A16B5
:100FF0008A11BF270A128A1183010A128A11B9299C
:10100000FF1B0A2883137F1883170008840A03191B
:10101000FF0A080008308A000408840A82070034A6
:1010200020342034203420342034203441345334CC
:1010300054342034203420342034203420342034DC
:101040000D340A3400342034203420342034203449
:101050002034413453345434203420342034203468
:101060002034203420340034533445345434203474
:1010700056346F346C3474343A3420342034203491
:10108000203400344F3455345434503455345434AF
:1010900020343A342034203400344F34553454341E
:1010A00050345534543420343A34203400345634D7
:0A10B0000D340A34003456340034C5
:1010BE00831203139F018030831603139F000330A6
:1010CE00F000700885040800F3007308F200023087
:1010DE000310F20DFF3E031D6F280310720D8312D5
:1010EE0003139F001F140630F200F20B7C28000041
:1010FE00831203131F151F198528862882281E08A0
:10110E00F100831603131E08F0000800A2287508CC
:10111E00FF00740884000A128A1500200A128A152C
:10112E000A128A1527210A128A150130F4070318AC
:10113E00F50A0030F507750883120313FF007408D3
:10114E0084000A128A1500200A128A15003A031D1D
:10115E00B128B2288E280800C8287208FF0071082E
:10116E0084000A128A1500200A128A150A168A119C
:10117E00B0270A128A150130F1070318F20A00305F
:10118E00F207720883120313FF00710884000A121B
:10119E008A1500200A128A15003A031DD728D8286E
:1011AE00B4280800F30065307002031CDF28E02825
:1011BE00EF286430F1007108F000EF2870088312F8
:1011CE0003139500FF287008831203139B00FF285A
:1011DE007308F100F2017208003A0319F728FF288C
:1011EE007108003A0319E528013A0319EA28FF2885
:1011FE000800F800F401F5017008F200F30172081E
:10120E00F6007308F700781C0D290E2914297608AC
:10121E00F4070318F50A7708F50701300310F60DE9
:10122E00F70DFF3E031D15290310F80C7808031D5A
:10123E00212922290A297508F1007408F0000800F6
:10124E00F3007308F0398312031388000814FD307D
:10125E00F200720888050A168A11E4270A128A1506
:10126E007308F20003300310F20DFF3E031D3A29FE
:10127E000310720DF0398312031388000814FD3029
:10128E00F200720888050A168A11E4270A128A15D6
:10129E000800F3007308F039831203138800FE3040
:1012AE00F20072088805FD30F200720888050A16F1
:1012BE008A11E4270A128A157308F200033003100C
:1012CE00F20DFF3E031D66290310720DF0398312D5
:1012DE0003138800FE30F20072088805FD30F2001C
:1012EE00720888050A168A11E4270A128A15080060
:1012FE0080308316031387002030980090308312BD
:10130E00031398002008A2002108A3000030A31B9D
:10131E00FF30A400A50006300310A20DA30DA40DEE
:10132E00A50DFF3E031D93292508F3002408F200A6
:10133E002308F1002208F0000030F7007A30F600A2
:10134E001230F5000030F4000A128A15AB220A1290
:10135E008A157008FF3E8316031399000800F200E9
:10136E00DE290F30831203139700643083160313A4
:10137E0092003230831203139500FB30F000700898
:10138E00831603138705EE290F30831203139D0076
:10139E0064308316031392003230831203139B00C2
:1013AE00FD30F0007008831603138705EE297208CE
:1013BE00F000F1017108003A0319E629EE297008D0
:1013CE00003A0319B829013A0319CB29EE2908006E
:1013DE00700871040319F429F529242AF501F50A78
:1013EE00032A01300310F00DF10DFF3E031DF92904
:1013FE000130F4007408F507F11F062A072AF829B0
:10140E0071087302031D0D2A70087202031C102A44
:10141E00112A172A7008F2027108031CF303F30253
:10142E0001300310F10CF00CFF3E031D182A0130A1
:10143E00F502031D232A242A072A7308F1007208D5
:10144E00F0000800203084005E30F4000408F5003F
:10145E000730F6007408840083130008F700F40ABE
:10146E007508840077088000F50AF60B312A83167A
:10147E000313880183120313A701A8018312031318
:10148E002708203E8400831300080A128A15502173
:10149E000A128A15013083120313A7070318A80A2C
:1014AE000030A8072808803AFF0080307F02031D15
:1014BE00622A07302702031C652A662A452A08007D
:1014CE00F501F6017008710403196E2A6F2AA62A17
:1014DE00F701F70A7D2A01300310F00DF10DFF3EE2
:1014EE00031D732A0130F4007408F707F11F802AD8
:1014FE00812A722A01300310F50DF60DFF3E031DF1
:10150E00822A71087302031D8E2A70087202031C50
:10151E00912A922A992A7008F2027108031CF30389
:10152E00F302751401300310F10CF00CFF3E031D95
:10153E009A2A0130F702031DA52AA62A812A7608C7
:10154E00F1007508F00008000030FC000030FB00D0
:10155E000030FA000030F900730872047104700450
:10156E000319BA2ABB2A082BFD01FD0ACB2A01302A
:10157E00F8000310F00DF10DF20DF30DF80BC02A6B
:10158E000130F8007808FD07F31FCE2ACF2ABE2AB5
:10159E000130F8000310F90DFA0DFB0DFC0DF80BE0
:1015AE00D12A73087702031DE62A72087602031DFC
:1015BE00E62A71087502031DE62A70087402031CE0
:1015CE00E92AEA2AF92A7008F4027108031C710F3D
:1015DE00F5027208031C720FF6027308031C730FD8
:1015EE00F702791401300310F30CF20CF10CF00C2D
:1015FE00FF3E031DFA2A0130FD02031D072B082BA7
:10160E00CF2A7C08F3007B08F2007A08F1007908F3
:10161E00F00008000310720D730DF4007408FA0048
:10162E007A08031D1B2B1C2B252B0030F3000030DA
:10163E00F2000030F1000030F0008A2B7008F40048
:10164E007108F5007208F6007308F7001F300310DA
:10165E00F70CF60CF50CF40CFF3E031D2E2B740844
:10166E00F8007808F900F217FF30F005FF30F105A9
:10167E00FF30F2050030F3059630FA02FA1F482BC0
:10168E00492B632B7A08803A973E03184F2B502B29
:10169E00512B1C2B01300310F30CF20CF10CF00C3F
:1016AE00FF3E031D522B0130F4007408FA07031D90
:1016BE00612B622B512B7A2B20307A02031C682B64
:1016CE00692B752B1C2B0130F4000310F00DF10D5E
:1016DE00F20DF30DF40B6C2B0130FA027A08031D98
:1016EE00792B7A2B6A2B790803197E2B7F2B8A2B69
:1016FE00F009F109F209F309F00A0319F10A0319C5
:10170E00F20A0319F30A08008312031347088039FB
:10171E00C8004808D1004708C8004807C900490852
:10172E00D800C61F9B2B9C2B9D2B581458080319B1
:10173E00A12BA22BB22B580A031DA62BA72BAF2B26
:10174E000030C7000030C6000030C5000030C400B5
:10175E00C617C701BA2B0030C7000030C6000030D4
:10176E00C5000030C40043088039C8004808D106BF
:10177E004308C8004807C9004908D900C21FC82B32
:10178E00C92BCA2B591459080319CE2BCF2BDF2B7B
:10179E00590A031DD32BD42BDC2B0030C300003091
:1017AE00C2000030C1000030C000C217C301E72BD9
:1017BE000030C3000030C2000030C1000030C00055
:1017CE004308420441044004031DEE2BEF2B082C6A
:1017DE000030C7000030C6000030C5000030C40025
:1017EE008030C6047F30C7045108C8004808C704BB
:1017FE004708C3004608C2004508C1004408C0009F
:10180E00672D5808031D0C2C0D2C162C0030C30010
:10181E000030C2000030C1000030C000672D5808F3
:10182E00C800C9014908CB0059084802CA00031C68
:10183E00CB034A087F3ED2004B080318013E003E00
:10184E00D3004708D0004608CF004508CE00440814
:10185E00CD000030C7000030C6000030C50000309B
:10186E00C4000030D7000030D6000030D500003064
:10187E00D400D9018C2C59080319462C472C672CFF
:10188E000130C8000310CD0DCE0DCF0DD00DC80BFD
:10189E00492C0130C8000310C40DC50DC60DC70D6F
:1018AE00C80B522CD71F5C2C5D2C5E2C44140130BF
:1018BE00C8000310D40DD50DD60DD70DC80B602C56
:1018CE0043085002031D752C42084F02031D752C50
:1018DE0041084E02031D752C40084D02031C782C46
:1018EE00792C882C57174008CD024108031C410F54
:1018FE00CE024208031C420FCF024308031C430FC3
:10190E00D0020130C8004808D9071A305902031C0A
:10191E00912C922C422C50084F044E044D04031966
:10192E00992C9A2CB92C5414B92C0130C8000310E0
:10193E00C40DC50DC60DC70DC80B9E2CD71FA82CE8
:10194E00A92CAA2C44140130C8000310D40DD50DB7
:10195E00D60DD70DC80BAC2CFF30D2070318D30A07
:10196E00FF30D307C61FBC2CBD2C9C2CD901D71F12
:10197E00C12CC22CDE2CFF305405C800FF3055059B
:10198E00C900FF305605CA007F305705CB004B0803
:10199E004A04490448040319D52CD62CD92CD90154
:1019AE00D90ADE2C441CDC2CDD2CDE2CD62C59085E
:1019BE000319E22CE32C142D0130C4070030031858
:1019CE000130C507003003180130C6070030031878
:1019DE000130C707471CF42CF52C142D4408C80001
:1019EE004508C9004608CA004708CB000130CC00A4
:1019FE004B0DCB0CCA0CC90CC80CCC0BFF2C4B08D6
:101A0E00C7004A08C6004908C5004808C40001308E
:101A1E00D2070318D30A0030D3075308803AFF00C9
:101A2E0080307F02031D1D2DFF305202031C202D1E
:101A3E00212D2F2DFF3083120313D2000030D3003F
:101A4E000030C7000030C6000030C5000030C400B2
:101A5E00831203135308803AFF0080307F02031D68
:101A6E003A2D0130520203183D2D3E2D4B2D83127F
:101A7E000313D201D3010030C7000030C60000307E
:101A8E00C5000030C400D101831203135208C800F0
:101A9E004808D800581C542D552D572DC6175B2DB0
:101AAE007F30C8004808C6055808C8000310480C07
:101ABE00C9004908C7005108C8004808C704FF2BD1
:101ACE0008007308803983120313A0002008F80061
:101ADE007308A0002007A1002108FA00F21F782D3C
:101AEE00792D7A2D7A147A0803197E2D7F2D8F2D5C
:101AFE007A0A031D832D842D8C2D0030F3000030C7
:101B0E00F2000030F1000030F000F217F301972DD3
:101B1E000030F3000030F2000030F1000030F00031
:101B2E0077088039A0002008F90079087806031993
:101B3E00A12DA22DA32D78177708A0002007A100B4
:101B4E002108F900F61FAC2DAD2DAE2D79147908B4
:101B5E000319B22DB32DC32D790A031DB72DB82D40
:101B6E00C02D0030F7000030F6000030F5000030D8
:101B7E00F400F617F701CB2D0030F7000030F60019
:101B8E000030F5000030F4007A0879020318D02DE9
:101B9E00D12D152E781FD42DD52DD92D8030A00006
:101BAE002008F8067A08A0002008FB007908A0009B
:101BBE002008FA007B08A0002008F9007008A00099
:101BCE002008FB007408A0002008F0007B08A0008D
:101BDE002008F4007108A0002008FB007508A00082
:101BEE002008F1007B08A0002008F5007208A00074
:101BFE002008FB007608A0002008F2007B08A00059
:101C0E002008F6007308A0002008FB007708A0004B
:101C1E002008F3007B08A0002008F700FB017908DC
:101C2E00A000A1012108A3007A082002A200031C33
:101C3E00A3032308803AFF0080307F02031D292E64
:101C4E001A302202031C2C2E2D2E6E2E73087204B7
:101C5E0071047004031D342E362E0130372E0030E1
:101C6E0083120313A0002008FB000030F3000030A5
:101C7E00F2000030F1000030F0007908A0002008DA
:101C8E00FA00742E7B1C4C2E4D2E582E7B08831280
:101C9E000313A0000310200C0138A1002108FB0043
:101CAE005A2E0310FB0C701C5D2E5E2E5F2EFB1742
:101CBE00013083120313A000730DF30CF20CF10C20
:101CCE00F00CA00B632E0130A0002008FA07790853
:101CDE007A02031C732E742E492E781B772E782EC3
:101CEE00C72E7A08031D7C2E7D2E862E0030F30023
:101CFE000030F2000030F1000030F000FF2F7408C9
:101D0E00F007750803110318013E03198F2EF10712
:101D1E00760803110318013E0319962EF207770871
:101D2E0003110318013E03199D2EF307731CA02EF9
:101D3E00A12E7F2F7B1CA42EA52EB02E7B088312E6
:101D4E000313A0000310200C0138A1002108FB0092
:101D5E00B22E0310FB0C701CB52EB62EB72EFB1731
:101D6E00013083120313A000730DF30CF20CF10C6F
:101D7E00F00CA00BBB2E0130A0002008FA077F2F1D
:101D8E007308803AFF007708803A7F02031DD92E30
:101D9E0076087202031DD92E75087102031DD92E05
:101DAE00740870020318DC2EDD2E372FFF308312DD
:101DBE000313A000FF30A100FF30A200FF30A300EC
:101DCE007408A4007508A5007608A6007708A70079
:101DDE007008A4027108031C710FF62EF72EA502CF
:101DEE007208031C720FFC2EFD2EA6027308031C34
:101DFE00730F022F032FA7022408A007250803182C
:101E0E00250F0A2F0B2FA10726080318260F102FB8
:101E1E00112FA20727080318270AA3072308F30088
:101E2E002208F2002108F1002008F0008030A00006
:101E3E002008F806FB09FB0A7B08031D272F282F15
:101E4E00452F0130F007003003180130F107003044
:101E5E0003180130F207003003180130F307452F45
:101E6E007408F0027508031C750FF1027608031C46
:101E7E00760FF2027708031C770FF30273087204D1
:101E8E0071047004031D4C2F4D2F7B2F7B08031DF7
:101E9E00512F522F7B2F0030F3000030F200003014
:101EAE00F1000030F000FF2F013083120313A00069
:101EBE000310F00DF10DF20DF30DA00B5F2FFB1FB4
:101ECE00692F6A2F6B2F70147B1C6E2F6F2F722F42
:101EDE000314FB0D742F0310FB0D7A080319782FD2
:101EEE00792F7B2F0130FA02F21F7E2F7F2F5B2F6F
:101EFE00F901FB1F832F842F922F7B087F39031943
:101F0E00892F8A2F8D2FF901F90A922F701C902F8D
:101F1E00912F922F8A2F79080319962F972FCD2F55
:101F2E000130F007003003180130F10700300318BC
:101F3E000130F207003003180130F307731CA82F8D
:101F4E00A92FCD2F700883120313A0007108A100D2
:101F5E007208A2007308A3000130A400230DA30C85
:101F6E00A20CA10CA00CA40BB52F2308F300220881
:101F7E00F2002108F1002008F0007A0A0319C82F98
:101F8E00C92FCD2F0130A0002008FA077A0A0319B5
:101F9E00D12FD22FD72F7A08031DD62FD72FE52F6B
:101FAE000030F3000030F2000030F1000030F0009D
:101FBE007A08031DE32FE42FE52FF8017A1CE82F92
:101FCE00E92FEB2FF217F12F7F3083120313A000AE
:101FDE002008F2057A0883120313A0000310200CC8
:101FEE00A1002108F300F81FFD2FFE2FFF2FF3177E
:021FFE000800D9
:102F3C00831203131215080001300A128A1550214E
:102F4C000A168A110800023428340E3401348034F5
:102F5C0080340034F000831203130C1EB62FB72FED
:102F6C00B12F0C127008990008007E088A007F08A7
:102F7C0082000A168A11BB270A168A118000840A5D
:102F8C0004087D0603190034FF0A0319FE0ABF2F3B
:102F9C00F5007408031DD32FD42FDC2F7508803E49
:102FAC000A128A1550210A168A11E32F7508C03EA1
:102FBC000A128A1550210A168A110800831203136B
:102FCC0008150630F1003030F000F00BEB2FF10B50
:102FDC00EB2F0000FB30F000700883120313880500
:102FEC000630F1003030F000F00BFA2FF10BFA2F15
:042FFC0000000800C9
:02400E003A3F37
:00000001FF
