:060000000A128A11EE2F26
:10000A0028343334323406340F3480340034FB015C
:10001A00FC01760877040319132814284B28FD01DC
:10002A00FD0A222801300310F60DF70DFF3E031DCD
:10003A0018280130FA007A08FD07F71F2528262814
:10004A00172801300310FB0DFC0DFF3E031D272866
:10005A0077087902031D332876087802031C3628AC
:10006A0037283E287608F8027708031CF903F902B4
:10007A007B1401300310F70CF60CFF3E031D3F28DA
:10008A000130FD02031D4A284B2826287C08F70068
:10009A007B08F600080000308312031368058316F4
:1000AA000313A00000308312031369058316031398
:1000BA00A1008030831203136A0583160313A2007A
:1000CA007F30831203136B0583160313A3002308DF
:1000DA00220421042004031D732874287E2800307A
:1000EA0083120313EB000030EA000030E90000300D
:1000FA00E800003083126C0583160313A000003059
:10010A00831203136D0583160313A1008030831233
:10011A0003136E0583160313A2007F3083120313A1
:10012A006F0583160313A300230822042104200465
:10013A00031DA028A128AB28003083120313EF0067
:10014A000030EE000030ED000030EC008312EB1FAF
:10015A00AF28B028F828003083160313A000003017
:10016A00A1000030A2008030A300831203136808A4
:10017A0083160313A002831203136908031C690F71
:10018A00C728CA2883160313A102831203136A0815
:10019A00031C6A0FD128D42883160313A2028312E0
:1001AA0003136B08031C6B0FDB28DE28831603136B
:1001BA00A302831203138316031323088312031360
:1001CA00EB0083160313220883120313EA00831633
:1001DA000313210883120313E9008316031320086B
:1001EA0083120313E800EF1FFB28FC284429003080
:1001FA0083160313A0000030A1000030A200803053
:10020A00A300831203136C0883160313A00283123C
:10021A0003136D08031C6D0F132916298316031384
:10022A00A102831203136E08031C6E0F1D292029D5
:10023A0083160313A202831203136F08031C6F0FA2
:10024A0027292A2983160313A30283120313831669
:10025A000313230883120313EF00831603132208E0
:10026A0083120313EE008316031321088312031368
:10027A00ED0083160313200883120313EC00803069
:10028A00EB068030EF066F086B02031D56296E08D5
:10029A006A02031D56296D086902031D56296C0856
:1002AA006802031859295A295C2903105D29031485
:1002BA00080083160313C300A530AD002D08B6004D
:1002CA00D72F25304A0603196B296C2978294A0841
:1002DA00AD00430884002D08831780000130AD006B
:1002EA002D08C307D72FB701B801240884000A12C2
:1002FA008A150A200A128A112E3A031D852986298F
:10030A00CB2938170130AD002D08A407C401C50157
:10031A00BA290A30F0000030F100831603134508A9
:10032A00F3004408F2000A168A15E7200A128A1115
:10033A00710883160313C5007008C40024088400DA
:10034A000A128A150A200A128A11D03EAD00FF301D
:10035A0003180030AE002D08C4070318C50A2E087A
:10036A00C5070130AD002D08A407240884000A122D
:10037A008A150A200A128A110A168A1534200A12C4
:10038A008A110318C929CA298E29D129C401C5018C
:10039A003816D1293815ED29013083160313A4071D
:1003AA00FF30240784000A128A150A200A128A11C9
:1003BA00CA00AD00AE012E08003A0319E529D72F6D
:1003CA002D08003A0319E92F663A0319CF29D72FC6
:1003DA0000303705AD0007303805AE002D082E0471
:1003EA000319F829F929922F381EFC29FD29012A17
:1003FA000630C4000030C5003608840083130008A4
:10040A00C600840A0008C700840A0008C800840AD3
:10041A000008C9000430AD002D08B6074908831248
:10042A000313EB0083160313480883120313EA002D
:10043A0083160313470883120313E9008316031371
:10044A00460883120313E8000030EF000030EE0084
:10045A000030ED000030EC000A128A1150200A1216
:10046A008A110318392A3A2A572A83160313490884
:10047A00F3004808F2004708F1004608F0000A169F
:10048A008A151D200A128A11730883160313C900DC
:10049A007208C8007108C7007008C6000330B704A4
:1004AA000030B80483160313BD01BE014908F300E6
:1004BA004808F2004708F1004608F0000030F7004B
:1004CA000030F6000030F5000030F4000A168A15F4
:1004DA00BD220A128A110318732A742A802B031068
:1004EA0083160313480D490D823EBD00FF300318E1
:1004FA000030BE00FF30BD070318BE0AFF30BE073A
:10050A000330F0000030F1003E08F3003D08F2002D
:10051A000A168A15E7200A128A117108831603132C
:10052A00BE007008BD000A30F7000030F8003E082F
:10053A00FA003D08F9000A168A15C5230A128A111B
:10054A00780883160313BE007708BD00BE1FAE2AC3
:10055A00AF2AB52AFF30BD070318BE0AFF30BE070F
:10056A003D03FF3A0A128A1540210A128A118312A0
:10057A000313430883160313C200831203134208AA
:10058A0083160313C100831203134108831603134E
:10059A00C00083120313400883160313BF004908DF
:1005AA0083120313A9008316031348088312031343
:1005BA00A80083160313470883120313A7008316A0
:1005CA000313460883120313A60083160313420873
:1005DA0083120313AD008316031341088312031316
:1005EA00AC0083160313400883120313AB0083166F
:1005FA0003133F0883120313AA000A128A159F24C1
:10060A000A128A1183120313290883160313C200DC
:10061A0083120313280883160313C10083120313DA
:10062A00270883160313C0008312031326088316B0
:10063A000313BF00420883120313EB00831603134C
:10064A00410883120313EA00831603134008831236
:10065A000313E900831603133F0883120313E80008
:10066A003F30EF008030EE000030ED000030EC004B
:10067A000A128A1150200A128A110318452B462B96
:10068A004F2BFF3083160313BD070318BE0AFF3032
:10069A00BE07802B83160313420883120313EB0051
:1006AA0083160313410883120313EA008316031304
:1006BA00400883120313E900831603133F088312C9
:1006CA000313E8004130EF002030EE000030ED0067
:1006DA000030EC000A128A1150200A128A11031CF7
:1006EA00772B782B802B013083160313BD07031851
:1006FA00BE0A0030BE07831603134508803AFF007E
:10070A0080307F02031D8B2B0D30440203188E2B81
:10071A008F2BD62B8316031344080A168A11EB2053
:10072A000A128A11831203134308D7004208D6001B
:10073A004108D5004008D4008316031349088312E0
:10074A000313DB0083160313480883120313DA002A
:10075A0083160313470883120313D900831603135E
:10076A00460883120313D8000A168A1178250A123A
:10077A008A1183120313570883160313C9008312BD
:10078A000313560883160313C8008312031355086C
:10079A0083160313C7008312031354088316031323
:1007AA00C600831603133E08803AFF0080307F029A
:1007BA00031DE12B0A303D020318E42BE52B362CEE
:1007CA00831603134908F3004808F2004708F100AA
:1007DA004608F0000030F7000030F6000030F5005F
:1007EA000030F4000A168A15BD220A128A1103186B
:1007FA00FF2B002CB62C831603134908831203130C
:10080A00D60083160313480883120313D5008316F0
:10081A000313470883120313D400831603134608ED
:10082A0083120313D3000A168A152E240A128A1178
:10083A00831203135608550454045304031D262C2B
:10084A00272CB62C831603133E08803AFF0080300B
:10085A007F02031D322C02303D02031C352C362C3C
:10086A00B62C83160313420883120313EB00831674
:10087A000313410883120313EA0083160313400883
:10088A0083120313E900831603133F088312031329
:10089A00E8004030EF008930EE007030ED005F3044
:1008AA00EC000A128A1150200A128A1103185E2CCF
:1008BA005F2C682CF73083160313BD070318BE0A92
:1008CA00FF30BE07702CF83083160313BD070318D8
:1008DA00BE0AFF30BE073D080A128A1540210A12D5
:1008EA008A1183120313430883160313C200831267
:1008FA000313420883160313C1008312031341082A
:10090A0083160313C00083120313400883160313CC
:10091A00BF004908F3004808F2004708F1004608FA
:10092A00F0004208F7004108F6004008F5003F08C9
:10093A00F4000A168A112D200A128A1173088316E6
:10094A000313BC007208BB007108BA007008B90032
:10095A000030C9000030C8000030C7000030C600AF
:10096A003A2D83160313490883120313D6008316FC
:10097A000313480883120313D50083160313470889
:10098A0083120313D4008316031346088312031336
:10099A00D3000A168A152E240A128A118312031307
:1009AA00560883160313BC008312031355088316D3
:1009BA000313BB0083120313540883160313BA00EC
:1009CA0083120313530883160313B9003C08F70074
:1009DA003B08F6003A08F5003908F40000300A1618
:1009EA008A15AA240A128A11770883120313EB00C4
:1009FA007608EA007508E9007408E800831603130C
:100A0A00490883120313EF0083160313480883125D
:100A1A000313EE0083160313470883120313ED0032
:100A2A0083160313460883120313EC000A168A1569
:100A3A00C3200A128A11831203136B088316031345
:100A4A00C900831203136A0883160313C8008312AA
:100A5A000313690883160313C70083120313680874
:100A6A0083160313C600BD01BE01CA01CA0A4A0899
:100A7A00AD0001300310AD0DFF3E031D3F2D0310E5
:100A8A002D0D693E84000A128A150A200A128A115B
:100A9A00AE000A128A150A200A128A11AF000A1237
:100AAA008A150A200A128A11B0000A128A150A2027
:100ABA000A128A11B10031083C02031D6E2D30085A
:100ACA003B02031D6E2D2F083A02031D6E2D2E08C0
:100ADA0039020318712D722D732D7D2D0130AD0051
:100AEA002D08CA070A304A06031D7C2D7D2D3C2D90
:100AFA0003303705AD0000303805AE002D082E044E
:100B0A000319882D892DFB2D2D30AD004308840053
:100B1A002D08831780000130AD002D08C307FB2D77
:100B2A004A08AD0001300310AD0DFF3E031D982D9C
:100B3A0003102D0D693E84000A128A150A200A1232
:100B4A008A11F0000A128A150A200A128A11F10083
:100B5A000A128A150A200A128A11F2000A128A1542
:100B6A000A200A128A11F3003C08F7003B08F60033
:100B7A003A08F5003908F4000A168A155F230A12A2
:100B8A008A11730883160313C2007208C100710820
:100B9A00C0007008BF000030F3000030F2000030DF
:100BAA00F1000A30F0004208F7004108F600400858
:100BBA00F5003F08F4000A168A150B230A128A1157
:100BCA00730883160313C2007208C1007108C000BB
:100BDA007008BF003F08303EAD00430884002D086E
:100BEA00831780000130AD002D08C3070130CA0207
:100BFA004A0A031D012E022E952D162E3030831619
:100C0A000313AD00430884002D08831780000130C8
:100C1A00AD002D08C307FF30BD070318BE0AFF3019
:100C2A00BE073E08803AFF0080307F02031D1F2E58
:100C3A0001303D020318222E232E032E831603139E
:100C4A004508803AFF0080307F02031D2E2E0930AE
:100C5A004402031C312E322E392E08308316031318
:100C6A00AD002D08CA003F2E831603134408AD00B9
:100C7A002D08CA004A08AD00AE012D08C4022E088C
:100C8A00031CC503C5024A0803194C2E4D2E582EC3
:100C9A002E30AD00430884002D08831780000130F0
:100CAA00AD002D08C3074A080A128A1540210A1204
:100CBA008A1183120313430883160313B5008312A0
:100CCA000313420883160313B40083120313410863
:100CDA0083160313B3008312031340088316031306
:100CEA00B200350883120313AD00831603133408C8
:100CFA0083120313AC0083160313330883120313FE
:100D0A00AB0083160313320883120313AA00831657
:100D1A000313490883120313A9008316031348080F
:100D2A0083120313A80083160313470883120313BD
:100D3A00A70083160313460883120313A6000A1298
:100D4A008A159F240A128A11831203132908D600CE
:100D5A002808D5002708D4002608D3000A168A15C1
:100D6A002E240A128A1183120313560883160313B8
:100D7A00BC0083120313550883160313BB008312A6
:100D8A000313540883160313BA0083120313530878
:100D9A0083160313B900722F4A08AD0001300310FD
:100DAA00AD0DFF3E031DD42E03102D0D693E8400A8
:100DBA000A128A150A200A128A11F0000A128A15E2
:100DCA000A200A128A11F1000A128A150A200A1246
:100DDA008A11F2000A128A150A200A128A11F300ED
:100DEA003C08F7003B08F6003A08F5003908F40019
:100DFA000A168A155F230A128A11730883160313C7
:100E0A00C2007208C1007108C0007008BF0000303B
:100E1A00F3000030F2000030F1000A30F00042081E
:100E2A00F7004108F6004008F5003F08F4000A16EA
:100E3A008A150B230A128A11730883160313C20038
:100E4A007208C1007108C0007008BF003F08303E38
:100E5A00AD00430884002D08831780000130AD00DF
:100E6A002D08C3074A08AD0001300310AD0DFF3E3F
:100E7A00031D3A2F03102D0D693E84000A128A15AC
:100E8A000A200A128A11F0000A128A150A200A1286
:100E9A008A11F1000A128A150A200A128A11F2002E
:100EAA000A128A150A200A128A11F3003C08F7006E
:100EBA003B08F6003A08F5003908F4000A168A15C4
:100ECA000B230A128A11730883160313BC007208D3
:100EDA00BB007108BA007008B9000130CA024A0A98
:100EEA00031D782F792FD12E8B2F3030AD00430878
:100EFA0084002D08831780000130AD002D08C30738
:100F0A00FF30C4070318C50AFF30C5074408450463
:100F1A00031D902F912F7A2FD72F44084504031DC4
:100F2A00972F982FA62F3C083B043A043904031D37
:100F3A009F2FA02FA62F0130C4070318C50A00301F
:100F4A00C5074508803A803C031DAD2F44084A0274
:100F5A000318B02FB12FB22FC12F831603134508E0
:100F6A00803AAD0080302D02031DBD2F4A0844028D
:100F7A000318C02FC12FC12F03308316031337055F
:100F8A00AD0000303805AE002D082E040319CE2F0F
:100F9A00CF2FD72F2D30AD00430884002D0883179B
:100FAA00800073290130A407FF30240784000A1245
:100FBA008A150A200A128A11AD002D08CA004A08A9
:100FCA00031DE82FE92F662943088400831780014F
:100FDA0008008313D630FD000030FE000530FF0004
:100FEA00CF3084000A168A155D200A128A118301FD
:100FFA000A168A11F62AFF1B0A2883137F188317F9
:10100A000008840A0319FF0A080008308A00040845
:10101A00840A820700340034003480343F340034B8
:10102A0000342034413400340034C83442340034AB
:10103A0000347A344434003440341C3446340034A6
:10104A005034C3344734003424347434493480343B
:10105A00963418344B342034BC34BE344C342834DF
:10106A006B346E344E34F934023415345034EC3463
:10107A007834AD346034CA34F234493471340034CB
:10108A00003480343F34CD34CC34CC343D340A344B
:10109A00D73423343C346F34123483343A3417341B
:1010AA00B734D1343834AC34C53427343734BD344A
:1010BA003734863435349534BF34D63433347734C0
:1010CA00CC342B3432345F34703489343034FF34C6
:1010DA00E634DB342E340834E5343C341E346034D0
:1010EA004234A2340D3401340034003400340A345A
:1010FA000034003400346434003400340034E834FA
:10110A000334003400341034273400340034A0345B
:10111A00863401340034403442340F34003480348D
:10112A009634983400340034E134F534053400340C
:10113A00CA349A343B3443344834303420343D344E
:10114A00203425342E343334663420342D342D346F
:10115A00203443344834313420343D342034253467
:10116A002E3433346634003453347934733474345B
:10117A0065346D34203453347434613472347434C5
:10118A002E342E342E342E340D340A340034533493
:10119A0079347334743465346D342034533474348C
:1011AA006134723474342E342E342E342E34003496
:1011C00001300A168A15A6210A128A150800F601AE
:1011D000F31FEB28EC28F328F209F309F20A0319AC
:1011E000F30AF601F60AF11FF628F728FC28F009A1
:1011F000F109F00A0319F10A7008710403190129B1
:1012000002293129F501F50A102901300310F00DEA
:10121000F10DFF3E031D06290130F4007408F507A7
:10122000F11F13291429052971087302031D1A29B6
:1012300070087202031C1D291E2924297008F2025D
:101240007108031CF303F30201300310F10CF00CDE
:10125000FF3E031D25290130F502031D30293129E8
:10126000142976080319352936293B29F209F3098F
:10127000F20A0319F30A7308F1007208F00008007B
:1012800083120313D200D21F46294729F42AD20918
:10129000D20A5208803A123E031C4F295029382A9C
:1012A0000A30F7000030F8005208F200F301F21B98
:1012B000F3036430F0000030F1000A128A15E720D1
:1012C0000A128A157108FA007008F9000A168A15C0
:1012D000C5230A128A15770883120313C40001304C
:1012E0000310C40DFF3E031D70290310440D593E29
:1012F00084000A128A150A200A128A15C5000A12E9
:101300008A150A200A128A15C6000A128A150A20AE
:101310000A128A15C7000A128A150A200A128A15AB
:10132000C8004808A9004708A8004608A7004508C3
:10133000A6006430F7000030F8005208F900FA0106
:10134000F91BFA030A168A15C5230A128A157708AB
:1013500083120313C90001300310C90DFF3E031DA2
:10136000AC290310490D7D3E84000A128A150A201B
:101370000A128A15CA000A128A150A200A128A1548
:10138000CB000A128A150A200A128A15CC000A120A
:101390008A150A200A128A15CD004D08AD004C08A6
:1013A000AC004B08AB004A08AA000A128A159F2419
:1013B0000A128A15831203132908D1002808D000C5
:1013C0002708CF002608CE000A30F0000030F100D8
:1013D0005208F200F301F21BF3030A128A15E72008
:1013E0000A128A15700883120313C4000130031017
:1013F000C40DFF3E031DF7290310440D353E840044
:101400000A128A150A200A128A15C5000A128A15BC
:101410000A200A128A15C6000A128A150A200A1220
:101420008A15C7000A128A150A200A128A15C800EE
:101430004808A9004708A8004608A7004508A600D4
:101440005108AD005008AC004F08AB004E08AA0090
:101450000A128A159F240A128A1583120313290877
:10146000C3002808C2002708C1002608C0009E2C1F
:101470005208803A753E031C3E2A3F2AC72A0A308A
:10148000F0000030F1005208F200F301F21BF30308
:101490000A128A15E7200A128A15700883120313AC
:1014A000C40001300310C40DFF3E031D522A031077
:1014B000440D353E84000A128A150A200A128A1544
:1014C000C5000A128A150A200A128A15C6000A12D5
:1014D0008A150A200A128A15C7000A128A150A20DC
:1014E0000A128A15C8004808A9004708A80046083B
:1014F000A7004508A6000A30F7000030F80052089F
:10150000F900FA01F91BFA030A168A15C5230A1213
:101510008A15770883120313C90001300310C90D1F
:10152000FF3E031D8E2A0310490D593E84000A1206
:101530008A150A200A128A15CA000A128A150A2078
:101540000A128A15CB000A128A150A200A128A1575
:10155000CC000A128A150A200A128A15CD004D08FD
:10156000AD004C08AC004B08AB004A08AA000A12B8
:101570008A159F240A128A15831203132908C300AF
:101580002808C2002708C1002608C0009E2C520867
:10159000C40001300310C40DFF3E031DCA2A03100E
:1015A000440D353E84000A128A150A200A128A1553
:1015B000C5000A128A150A200A128A15C6000A12E4
:1015C0008A150A200A128A15C7000A128A150A20EB
:1015D0000A128A15C8004808C3004708C200460816
:1015E000C1004508C0009E2C5208803A123E031CE0
:1015F000FA2AFB2AE32B0A30F7000030F8005208E1
:10160000F200F301F21BF3036430F0000030F1004C
:101610000A128A15E7200A128A157108FA00700862
:10162000F9000A168A15C5230A128A15770883124B
:101630000313C40001300310C40DFF3E031D1B2B18
:101640000310440D253E84000A128A150A200A124E
:101650008A15C5000A128A150A200A128A15C600C0
:101660000A128A150A200A128A15C7000A128A1558
:101670000A200A128A15C8004808A9004708A800CD
:101680004608A7004508A6006430F7000030F800BF
:101690005208F900FA01F91BFA030A168A15C52344
:1016A0000A128A15770883120313C9000130031048
:1016B000C90DFF3E031D572B0310490D493E840001
:1016C0000A128A150A200A128A15CA000A128A15F5
:1016D0000A200A128A15CB000A128A150A200A1259
:1016E0008A15CC000A128A150A200A128A15CD0022
:1016F0004D08AD004C08AC004B08AB004A08AA00EE
:101700000A128A159F240A128A15831203132908C4
:10171000D1002808D0002708CF002608CE000A30C4
:10172000F0000030F1005208F200F301F21BF30365
:101730000A128A15E7200A128A1570088312031309
:10174000C40001300310C40DFF3E031DA22B031083
:10175000440D013E84000A128A150A200A128A15D5
:10176000C5000A128A150A200A128A15C6000A1232
:101770008A150A200A128A15C7000A128A150A2039
:101780000A128A15C8004808A9004708A800460898
:10179000A7004508A6005108AD005008AC004F084E
:1017A000AB004E08AA000A128A159F240A128A1555
:1017B000831203132908C3002808C2002708C100A8
:1017C0002608C0009E2C5208803A753E031CE92B67
:1017D000EA2B722C0A30F0000030F1005208F200BF
:1017E000F301F21BF3030A128A15E7200A128A1585
:1017F000700883120313C40001300310C40DFF3EB0
:10180000031DFD2B0310440D013E84000A128A15AE
:101810000A200A128A15C5000A128A150A200A121D
:101820008A15C6000A128A150A200A128A15C700EC
:101830000A128A150A200A128A15C8004808A90047
:101840004708A8004608A7004508A6000A30F70088
:101850000030F8005208F900FA01F91BFA030A16E1
:101860008A15C5230A128A15770883120313C90043
:1018700001300310C90DFF3E031D392C0310490D23
:10188000253E84000A128A150A200A128A15CA0007
:101890000A128A150A200A128A15CB000A128A1522
:1018A0000A200A128A15CC000A128A150A200A1286
:1018B0008A15CD004D08AD004C08AC004B08AB00BC
:1018C0004A08AA000A128A159F240A128A1583124E
:1018D00003132908C3002808C2002708C1002608EE
:1018E000C0009E2C5208C40001300310C40DFF3EFE
:1018F000031D752C0310440D013E84000A128A1545
:101900000A200A128A15C5000A128A150A200A122C
:101910008A15C6000A128A150A200A128A15C700FB
:101920000A128A150A200A128A15C8004808C3003C
:101930004708C2004608C1004508C00008008312DD
:10194000031329088039AE002E08B3002908AE0021
:101950002E07AF002F08B900A81FAF2CB02CB12C58
:10196000391439080319B52CB62CC52C390A031DB6
:10197000BA2CBB2CC32C0030A9000030A8000030CA
:10198000A7000030A600A817CD2C0030A900003019
:10199000A8000030A7000030A6002D088039AE0056
:1019A0002E08B3062D08AE002E07AF002F08B80092
:1019B000AC1FDB2CDC2CDD2C381438080319E12C8F
:1019C000E22CF12C380A031DE62CE72CEF2C00301A
:1019D000AD000030AC000030AB000030AA00AC1706
:1019E000F92C0030AD000030AC000030AB0000300E
:1019F000AA0038080319FD2CFE2C032D3908031DFD
:101A0000022D032D0C2D0030A9000030A80000305D
:101A1000A7000030A600FF2F2608AE002E08F00019
:101A20002C080A168A157F210A128A15710883125A
:101A30000313BF007008BE003E08AE00AF01B00146
:101A4000B1013108B7003008B6002F08B5002E08E4
:101A5000B4003F08AE00AF01B001B1013108BD00D4
:101A60003008BC002F08BB002E08BA002708AE00C3
:101A70002E08F0002B080A168A157F210A128A15F3
:101A8000710883120313BF007008BE003E08AE0049
:101A9000AF01B001B1012E08B4072F0803110318DC
:101AA000013E0319542DB507300803110318013EF8
:101AB00003195B2DB607310803110318013E031902
:101AC000622DB7073F08AE00AF01B001B1012E088B
:101AD000BA072F0803110318013E0319702DBB0725
:101AE000300803110318013E0319772DBC07310894
:101AF00003110318013E03197E2DBD072808AE000F
:101B00002E08F0002A080A168A157F210A128A1563
:101B1000710883120313BF007008BE003E08AE00B8
:101B2000AF01B001B1012E08B4072F08031103184B
:101B3000013E03199C2DB507300803110318013E1F
:101B40000319A32DB607310803110318013E031929
:101B5000AA2DB7073F08AE00AF01B001B1012E08B2
:101B6000BA072F0803110318013E0319B82DBB074C
:101B7000300803110318013E0319BF2DBC073108BB
:101B800003110318013E0319C62DBD070830AE002E
:101B90000310B40DB50DB60DB70DAE0BC82D27084B
:101BA000AE002E08F0002A080A168A157F210A12B4
:101BB0008A15710883120313BF007008BE003E0827
:101BC000AE003F08AF00B001B1012E08B4072F08E6
:101BD00003110318013E0319EE2DB5073008031158
:101BE0000318013E0319F52DB60731080311031838
:101BF000013E0319FC2DB7072608AE002E08F000A1
:101C00002B080A168A157F210A128A157108831279
:101C10000313BF007008BE003E08AE003F08AF00CF
:101C2000B001B1012E08B4072F0803110318013EBB
:101C300003191B2EB507300803110318013E0319C1
:101C4000222EB607310803110318013E0319292E6D
:101C5000B7070830AE000310B40DB50DB60DB70DC3
:101C6000AE0B2B2E2608AE002E08F0002A080A160E
:101C70008A157F210A128A15710883120313BF0087
:101C80007008BE003E08AE003F08AF00B001B101D1
:101C90002E08B4072F0803110318013E0319512E13
:101CA000B507300803110318013E0319582EB60773
:101CB000310803110318013E03195F2EB7072708E7
:101CC000AE002E08F0002C080A168A157F210A1291
:101CD0008A15710883120313BF007008BE003E0806
:101CE000AE003F08AF00B001B1012E08BA072F08BF
:101CF00003110318013E03197E2EBB0730080311A0
:101D00000318013E0319852EBC073108031103187F
:101D1000013E03198C2EBD072808AE002E08F000E6
:101D20002B080A168A157F210A128A157108831258
:101D30000313BF007008BE003E08AE003F08AF00AE
:101D4000B001B1012E08BA072F0803110318013E94
:101D50000319AB2EBB07300803110318013E03190A
:101D6000B22EBC07310803110318013E0319B92E26
:101D7000BD072808AE002E08F0002C080A168A15A8
:101D80007F210A128A15710883120313BF0070089D
:101D9000BE003E08AE003F08AF00B001B101083000
:101DA0000310AE0DAF0DB00DB10DFF3E031DD02ED3
:101DB0002E08BA072F0803110318013E0319E12E5C
:101DC000BB07300803110318013E0319E82EBC07B6
:101DD000310803110318013E0319EF2EBD07340823
:101DE000AE003508AF003608B0003708B100183033
:101DF0000310B10CB00CAF0CAE0CFF3E031DF82E5F
:101E00002E08BA072F0803110318013E0319092FE2
:101E1000BB07300803110318013E0319102FBC073C
:101E2000310803110318013E0319172FBD070830AD
:101E3000AE000310B40DB50DB60DB70DAE0B192FD6
:101E400039083807AE00AF01AF0D2E08823EBE0044
:101E50002F080318013EFF3EBF004B2F0130AE009C
:101E60000310BA0DBB0DBC0DBD0DAE0B302FB71F4F
:101E70003A2F3B2F3C2F3A140130AE000310B40D23
:101E8000B50DB60DB70DAE0B3E2FFF30BE070318D4
:101E9000BF0AFF30BF07BC1F4E2F4F2F2E2FB80198
:101EA000B71F532F542F702FFF303405AE00FF3073
:101EB0003505AF00FF303605B0007F303705B10083
:101EC000310830042F042E040319672F682F6B2F5D
:101ED000B801B80A702F3A1C6E2F6F2F702F682F21
:101EE00038080319742F752FA62F0130BA07003058
:101EF00003180130BB07003003180130BC07003065
:101F000003180130BD073D1C862F872FA62F3A08E6
:101F1000AE003B08AF003C08B0003D08B100013006
:101F2000B200310DB10CB00CAF0CAE0CB20B912F56
:101F30003108BD003008BC002F08BB002E08BA00D5
:101F40000130BE070318BF0A0030BF073F08803AC0
:101F5000FF0080307F02031DAF2FFF303E02031CC5
:101F6000B22FB32FBE2F7F3083120313BD008030FA
:101F7000BC000030BB000030BA00F32F8312031303
:101F80003F08803AFF0080307F02031DC92F0130D7
:101F90003E020318CC2FCD2FD92F0030831203130C
:101FA000BD000030BC000030BB000030BA00B301FF
:101FB000F32F831203133E08AE002E08B900FF3042
:101FC000BA05FF30BB057F30BC050030BD05391CAC
:101FD000EA2FEB2FEC2FBC173908AE0003102E0CA4
:101FE000AF002F08BD003308AE002E08BD043D0829
:101FF000A9003C08A8003B08A7003A08A600080072
:102000008312031312150800F3007308F0398312CA
:10201000031388000814FD30F200720888050A16C0
:102020008A1546200A168A117308F200033003103D
:10203000F20DFF3E031D17280310720DF0398312B5
:10204000031388000814FD30F200720888050A1690
:102050008A1546200A168A1108000310720D730DA6
:10206000F800780883120313A5002508031D3928FA
:102070003A2843280030F3000030F2000030F1002D
:102080000030F000EA280310760D770DF80078088C
:10209000A4002408031D4D284E284F283A28F21783
:1020A000FF30F005FF30F105FF30F2050030F30599
:1020B000F617FF30F405FF30F505FF30F605003068
:1020C000F7050030A3000030A2000030A10000306E
:1020D000A0007F30A502A0302407F8007808A502F0
:1020E0002030F8007808A4000130F8000310A00D9B
:1020F000A10DA20DA30DF80B762877087302031D1E
:102100008B2876087202031D8B2875087102031D47
:102110008B2874087002031C8E288F289E28740850
:10212000F0027508031C750FF1027608031C760F88
:10213000F2027708031C770FF30220140130F80035
:102140000310F00DF10DF20DF30DF80BA028013086
:10215000A402031DAC28AD287428A51FB028B128FF
:10216000CB282508803A9F3E0318B728B828B928FD
:102170003A2801300310A30CA20CA10CA00CFF3EC6
:10218000031DBA280130F8007808A507031DC928E7
:10219000CA28B928E22820302502031CD028D128DB
:1021A000DD283A280130F8000310A00DA10DA20D82
:1021B000A30DF80BD4280130A5022508031DE12842
:1021C000E228D2282308F3002208F2002108F100B7
:1021D0002008F000080083120313D3006E3053026E
:1021E000031CF328F428012A3F30A9000030A8007E
:1021F0000030A7000030A6006430F6000030F70081
:102200005308C400C5014408F8004508F9000A1243
:102210008A110C200A168A11760883120313C6004D
:1022200001300310C60DFF3E031D11290310460D9A
:102230007D3E84000A128A150A200A168A11C700F8
:102240000A128A150A200A168A11C8000A128A156B
:102250000A200A168A11C9000A128A150A200A16CB
:102260008A11CA004A08AD004908AC004808AB0012
:102270004708AA000A128A159F240A168A11831297
:1022800003132908D2002808D1002708D000260807
:10229000CF000A30F6000030F7005308C400C50133
:1022A0004408F2004508F3006430F0000030F1000B
:1022B0000A168A1545220A168A117108F900700853
:1022C000F8000A128A110C200A168A117608831265
:1022D0000313C60001300310C60DFF3E031D6B291A
:1022E0000310460D593E84000A128A150A200A1668
:1022F0008A11C7000A128A150A200A168A11C80014
:102300000A128A150A200A168A11C9000A128A15A9
:102310000A200A168A11CA004A08A9004908A8001A
:102320004808A7004708A6005208AD005108AC00B5
:102330005008AB004F08AA000A128A159F240A16FB
:102340008A11831203132908CE002808CD0027081C
:10235000CC002608CB000A30F0000030F100530812
:10236000C400C5014408F2004508F3000A168A15A6
:1023700045220A168A11700883120313C600013021
:102380000310C60DFF3E031DC0290310460D353E48
:1023900084000A128A150A200A168A11C7000A1236
:1023A0008A150A200A168A11C8000A128A150A20FC
:1023B0000A168A11C9000A128A150A200A168A11F9
:1023C000CA004A08A9004908A8004808A700470809
:1023D000A6004E08AD004D08AC004C08AB004B0801
:1023E000AA000A128A159F240A168A11831203135F
:1023F0002908C3002808C2002708C1002608C00019
:10240000F52A0B305302031C062A072AB22A3F3052
:10241000A9000030A8000030A7000030A6000A3054
:10242000F6000030F7005308C400C5014408F80066
:102430004508F9000A128A110C200A168A1176083A
:1024400083120313C60001300310C60DFF3E031DA7
:10245000242A0310460D593E84000A128A150A20C8
:102460000A168A11C7000A128A150A200A168A114A
:10247000C8000A128A150A200A168A11C9000A120F
:102480008A150A200A168A11CA004A08AD004908AE
:10249000AC004808AB004708AA000A128A159F241E
:1024A0000A168A11831203132908D2002808D100C2
:1024B0002708D0002608CF000A30F0000030F100D5
:1024C0005308C400C5014408F2004508F3000A1689
:1024D0008A1545220A168A11700883120313C60052
:1024E00001300310C60DFF3E031D712A0310460D77
:1024F000353E84000A128A150A200A168A11C7007E
:102500000A128A150A200A168A11C8000A128A15A8
:102510000A200A168A11C9000A128A150A200A1608
:102520008A11CA004A08A9004908A8004808A7005B
:102530004708A6005208AD005108AC005008AB0097
:102540004F08AA000A128A159F240A168A118312BC
:1025500003132908C3002808C2002708C100260861
:10256000C000F52A3F30A9000030A8000030A700C5
:102570000030A6005308C40001300310C40DFF3E14
:10258000031DBD2A0310440D353E84000A128A152E
:102590000A200A168A11C5000A128A150A200A168C
:1025A0008A11C6000A128A150A200A168A11C70063
:1025B0000A128A150A200A168A11C8004808AD00B6
:1025C0004708AC004608AB004508AA000A128A1565
:1025D0009F240A168A11831203132908C3002808AE
:1025E000C2002708C1002608C00008001930831661
:1025F0000313CB004B0883160317CC000A168A1569
:1026000028200A168A110A168A157F220A168A11AC
:10261000803083120313A0002530A1000A168A150A
:10262000D5210A168A1100300A168A150C220A16BC
:102630008A11193083160313CB004B08F0000030C9
:102640000A168A1558210A168A1100300A168A11AC
:1026500000200A168A11AA30F1008030F2000A1612
:102660008A1532210A168A11F40100300A168A15D9
:102670006C200A168A11BD30F4008030F5000A166D
:102680008A150C210A168A11053083160317C20712
:102690000318C30A0030C307443083120313C30076
:1026A0008030C2000030C1000030C0004030A900BE
:1026B000A030A8000030A7000030A60000300A16A5
:1026C0008A15A2200A168A11700883160313CB00FC
:1026D0007108CC00CD01CE014E08F7004D08F60080
:1026E0004C08F5004B08F40000300A168A15AA249D
:1026F0000A168A11770883120313AD007608AC001E
:102700007508AB007408AA000A128A159F240A16DD
:102710008A11831203132908C7002808C600270856
:10272000C5002608C4000A168A1523260A168A112F
:1027300083120313430883160317C700831203137E
:10274000420883160317C600831203134108831639
:102750000317C50083120313400883160317C40030
:10276000443083120313C3008030C2000030C10024
:102770000030C0004030A900A030A8000030A70001
:102780000030A60001300A168A15A2200A168A1106
:10279000700883160313CB007108CC00CD01CE0165
:1027A0004E08F7004D08F6004C08F5004B08F40001
:1027B00000300A168A15AA240A168A11770883128D
:1027C0000313AD007608AC007508AB007408AA00CE
:1027D0000A128A159F240A168A11831203132908E4
:1027E000C7002808C6002708C5002608C4000A1626
:1027F0008A1523260A168A118312031343088316A7
:102800000317CB0083120313420883160317CA0071
:1028100083120313410883160317C900831203139D
:10282000400883160317C8004308803AFF0083302E
:102830007F02031D1D2CE8304202031C202C212C9A
:10284000952C83160317C201C3010030F000F1007C
:102850003230F2000030F30090300A168A158220E0
:102860000A168A11913083160313CB004B08A4007B
:1028700083160317470883160313A800831603174C
:10288000460883160313A70083160317450883160B
:102890000313A60083160317440883160313A50029
:1028A000831603174B0883160313AC008316031714
:1028B0004A0883160313AB008316031749088316CF
:1028C0000313AA0083160317480883160313A900ED
:1028D00090300A128A115E210A168A11F401003022
:1028E0000A168A156C200A168A110A128A15E02027
:1028F0000A168A119030F4000130F5000A168A1584
:102900000C210A168A119030F1000130F2000A16EB
:102910008A1532210A168A11BA30F1008030F2008D
:102920000A168A1532210A168A113E3083120313C1
:10293000D7004C30D600CC30D500CD30D400831633
:102940000317470883120313DB0083160317460897
:1029500083120313DA008316031745088312031347
:10296000D90083160317440883120313D8000A16EC
:102970008A1178250A168A11831203135708EB006F
:102980005608EA005508E9005408E80083160317C2
:102990004B0883120313EF00831603174A088312B0
:1029A0000313EE0083160317490883120313ED0087
:1029B00083160317480883120313EC000A128A11C6
:1029C00050200A168A110318E62CE72CFD2C8316DA
:1029D00003174C080319ED2CEE2CF02C0530CC021B
:1029E0004C0883160313CB004B08F00000300A1686
:1029F0008A1558210A168A11692D831603174B0868
:102A000083120313EB00831603174A088312031380
:102A1000EA0083160317490883120313E90083169B
:102A20000317480883120313E800BE30D7004C3068
:102A3000D600CC30D500CD30D4008316031747081C
:102A400083120313DB008316031746088312031354
:102A5000DA0083160317450883120313D90083167F
:102A60000317440883120313D8000A168A11782525
:102A70000A168A11831203135708EF005608EE0056
:102A80005508ED005408EC000A128A1150200A166D
:102A90008A1103184C2D4D2D692D643083160317B0
:102AA0004C020318542D552D5D2D0530831603134C
:102AB000CB004B0883160317CC074C08831603136F
:102AC000CB004B08F00000300A168A1558210A1670
:102AD0008A111A3083160313CC00F730CB00CB0BCE
:102AE0006F2DCC0B6F2D742D442B0A128A110028E8
:102AF0008312031357088039DC005C08E400570890
:102B0000DC005C07DD005D08E600D61F882D892DFE
:102B10008A2D6614660803198E2D8F2D9F2D660A47
:102B2000031D932D942D9C2D0030D7000030D6002E
:102B30000030D5000030D400D617D701A72D0030C3
:102B4000D7000030D6000030D5000030D4005B083C
:102B50008039DC005C08E500650864060319B12DC6
:102B6000B22DB32D64175B08DC005C07DD005D0847
:102B7000E500DA1FBC2DBD2DBE2D651465080319B7
:102B8000C22DC32DD32D650A031DC72DC82DD02DF1
:102B90000030DB000030DA000030D9000030D8000F
:102BA000DA17DB01DB2D0030DB000030DA0000300B
:102BB000D9000030D800660865020318E02DE12D29
:102BC000252E641FE42DE52DE92D8030DC005C0806
:102BD000E4066608DC005C08E7006508DC005C08C9
:102BE000E6006708DC005C08E5005408DC005C08CF
:102BF000E7005808DC005C08D4006708DC005C08CB
:102C0000D8005508DC005C08E7005908DC005C08C7
:102C1000D5006708DC005C08D9005608DC005C08B9
:102C2000E7005A08DC005C08D6006708DC005C0896
:102C3000DA005708DC005C08E7005B08DC005C0891
:102C4000D7006708DC005C08DB00E7016508DC00F2
:102C5000DD015D08DF0066085C02DE00031CDF03A7
:102C60005F08803AFF0080307F02031D392E1A3042
:102C70005E02031C3C2E3D2E7A2E8312031357084E
:102C8000560455045404031D462E482E0130492E87
:102C90000030DC005C08E7000030D7000030D600D0
:102CA0000030D5000030D4006508DC005C08E60088
:102CB000822E671C5C2E5D2E662E6708DC000310DA
:102CC0005C0C0138DD005D08E700682E0310E70C9E
:102CD000541C6B2E6C2E6D2EE7170130DC00570D47
:102CE000D70CD60CD50CD40CDC0B6F2E0130DC00CD
:102CF0005C08E6078312031365086602031C812E35
:102D0000822E592E641B852E862ED12E6608031D19
:102D10008A2E8B2E942E0030D7000030D600003043
:102D2000D5000030D400FF2F5808D40759080311EC
:102D30000318013E03199D2ED5075A0803110318E5
:102D4000013E0319A42ED6075B0803110318013EA8
:102D50000319AB2ED707571CAE2EAF2E852F671C3D
:102D6000B22EB32EBC2E6708DC0003105C0C0138B9
:102D7000DD005D08E700BE2E0310E70C541CC12ED9
:102D8000C22EC32EE7170130DC00570DD70CD60C2E
:102D9000D50CD40CDC0BC52E0130DC005C08E6073A
:102DA000852F5708803AFF005B08803A7F02031D99
:102DB000E32E5A085602031DE32E59085502031D3F
:102DC000E32E580854020318E62EE72E3F2FFF305B
:102DD000DC00FF30DD00FF30DE00FF30DF00580890
:102DE000E0005908E1005A08E2005B08E3005408DB
:102DF000E0025508031C550FFE2EFF2EE102560877
:102E0000031C560F042F052FE2025708031C570F0F
:102E10000A2F0B2FE3026008DC0761080318610F1B
:102E2000122F132FDD0762080318620F182F192FB6
:102E3000DE0763080318630ADF075F08D7005E0830
:102E4000D6005D08D5005C08D4008030DC005C084A
:102E5000E406E709E70A6708031D2F2F302F4D2FDF
:102E60000130D407003003180130D50700300318B3
:102E70000130D607003003180130D7074D2F58080E
:102E8000D4025908031C590FD5025A08031C5A0FC3
:102E9000D6025B08031C5B0FD70257085604550483
:102EA0005404031D542F552F812F6708031D592FDC
:102EB0005A2F812F0030D7000030D6000030D500C7
:102EC0000030D400FF2F0130DC000310D40DD50DED
:102ED000D60DD70DDC0B652FE71F6F2F702F712FCD
:102EE0005414671C742F752F782F0314E70D7A2F55
:102EF0000310E70D660803197E2F7F2F812F013005
:102F0000E602D61F842F852F632FE501E71F892F47
:102F10008A2F982F67087F3903198F2F902F932FAF
:102F2000E501E50A982F541C962F972F982F902F84
:102F3000650803199C2F9D2FD12F0130D407003035
:102F400003180130D507003003180130D6070030D0
:102F500003180130D707571CAE2FAF2FD12F5408BD
:102F6000DC005508DD005608DE005708DF000130A0
:102F7000E0005F0DDF0CDE0CDD0CDC0CE00BB92F8C
:102F80005F08D7005E08D6005D08D5005C08D40055
:102F9000660A0319CC2FCD2FD12F0130DC005C083D
:102FA000E607660A0319D52FD62FDB2F6608031D07
:102FB000DA2FDB2FE92F0030D7000030D6000030A9
:102FC000D5000030D4006608031DE72FE82FE92F55
:102FD000E401661CEC2FED2FEF2FD617F32F7F3077
:102FE000DC005C08D6056608DC0003105C0CDD0024
:102FF0005D08D700E41FFD2FFE2FFF2FD717080015
:10302400F000831203130C1E1828192813280C12FD
:10303400700899000800730872047104700403197D
:103044002428252827288030F30608008312031338
:103054009F018030831603139F000330F000700833
:1030640085040800F100F0013A30710203183B288E
:103074003C28442830307102031C4128422844284B
:10308400F001F00A700C08008312031308150B30CA
:10309400F1006230F000F00B4D28F10B4D280000D8
:1030A400FB30F000700883120313880508007E08C3
:1030B4008A007F0882000A168A1559200A168A1582
:1030C4008000840A04087D0603190034FF0A0319EA
:1030D400FE0A5D28F5007408031D712872287A28F9
:1030E4007508803E0A168A15A6210A168A158128B3
:1030F4007508C03E0A168A15A6210A168A15080004
:10310400F5007508F4007408F60093287008F400BC
:10311400760884007408831780000130F400740872
:10312400F6070130F2020030031CF303F302720AC3
:10313400031DA028730A031DA028A12888280800BD
:10314400F3007308F20002300310F20DFF3E031D7A
:10315400A6280310720D831203139F001F140D3051
:10316400F200F20BB328831203131F151F19BB2897
:10317400BC28B8281E08F100831603131E08F000AB
:103184000800803083120313EB066F08D7006E0823
:10319400D6006D08D5006C08D4006B08DB006A0803
:1031A400DA006908D9006808D8000A168A11782557
:1031B4000A168A15831203135708EB005608EA000F
:1031C4005508E9005408E8000800F401F501701CF2
:1031D400EC28ED28F3287208F4070318F50A73089D
:1031E400F50701300310F20DF30DFF3E031DF42823
:1031F40001300310F10CF00CFF3E031DFB28700896
:103204007104031D06290729E9287508F1007408CB
:10321400F000080021297508FF00740884000A12D0
:103224008A1500200A168A150A168A1104200A161D
:103234008A150130F4070318F50A0030F5077508FC
:1032440083120313FF00740884000A128A150020F5
:103254000A168A15003A031D302931290D29080060
:1032640047297208FF00710884000A128A15002099
:103274000A168A150A168A1512200A168A150130AA
:10328400F1070318F20A0030F207720883120313DD
:10329400FF00710884000A128A1500200A168A1594
:1032A400003A031D5629572933290800F3006530D5
:1032B4007002031C5E295F296E296430F1007108D5
:1032C400F0006E2970088312031395007E2970089C
:1032D400831203139B007E297308F100F201720824
:1032E400003A031976297E297108003A03196429E2
:1032F400013A031969297E290800F800F401F5014F
:103304007008F200F3017208F6007308F700781CE5
:103314008C298D2993297608F4070318F50A770870
:10332400F50701300310F60DF70DFF3E031D942938
:103334000310F80C7808031DA029A1298929750810
:10334400F1007408F0000800F3007308F0398312E8
:1033540003138800FE30F20072088805FD30F20085
:10336400720888050A168A1546200A168A157308F3
:10337400F20003300310F20DFF3E031DBC290310BD
:10338400720DF039831203138800FE30F2007208C4
:103394008805FD30F200720888050A168A15462051
:1033A4000A168A150800803083160313870020301C
:1033B400980090308312031398002008A20021087B
:1033C400A3000030A31BFF30A400A50006300310A7
:1033D400A20DA30DA40DA50DFF3E031DE92925088B
:1033E400F3002408F2002308F1002208F000003062
:1033F400F700F430F6002430F5000030F4000A162B
:103404008A155F230A168A157008FF3E8316031374
:1034140099000800F200342A0F3083120313970036
:103424006430831603139200323083120313950021
:10343400FB30F0007008831603138705442A0F300D
:10344400831203139D0064308316031392003230F9
:10345400831203139B00FD30F000700883160313DE
:103464008705442A7208F000F1017108003A031933
:103474003C2A442A7008003A03190E2A013A031917
:10348400212A442A08007008710403194A2A4B2A85
:103494007A2AF501F50A592A01300310F00DF10DCD
:1034A400FF3E031D4F2A0130F4007408F507F11F95
:1034B4005C2A5D2A4E2A71087302031D632A700870
:1034C4007202031C662A672A6D2A7008F2027108C8
:1034D400031CF303F30201300310F10CF00CFF3E64
:1034E400031D6E2A0130F502031D792A7A2A5D2A0A
:1034F4007308F1007208F000080020308400CF3017
:10350400F4000408F5000730F600740884008313FF
:103514000008F700F40A7508840077088000F50AAB
:10352400F60B872A83160313880183120313A7015A
:10353400A801831203132708203E84008313000884
:103544000A168A15A6210A168A1501308312031356
:10355400A7070318A80A0030A8072808803AFF0024
:1035640080307F02031DB82A07302702031CBB2AC0
:10357400BC2A9B2A080000307005F8000030710551
:10358400F90080307205FA007F307305FB007B0878
:103594007A0479047804031DD02AD12AD92A003068
:1035A400F3000030F2000030F1000030F000003091
:1035B4007405F80000307505F90080307605FA00CE
:1035C4007F307705FB007B087A0479047804031DB7
:1035D400EC2AED2AF52A0030F7000030F60000301E
:1035E400F5000030F40077087306031D032B7608FA
:1035F4007206031D032B75087106031D032B740843
:1036040070060319062B072B092B03100A2B03142E
:10361400080073087204710470040319122B132B2D
:10362400562BF901F90A232B0130F8000310F00D91
:10363400F10DF20DF30DF80B182B0130F80078089A
:10364400F907F31F262B272B162B73087702031D6C
:10365400352B72087602031D352B71087502031D84
:10366400352B70087402031C382B392B472B700838
:10367400F4027108031C710FF5027208031C720F27
:10368400F6027308031C730FF70201300310F30CE6
:10369400F20CF10CF00CFF3E031D482B0130F90233
:1036A400031D552B562B272B7708F3007608F200C1
:1036B4007508F1007408F00008000030FC000030C8
:1036C400FB000030FA000030F90073087204710442
:1036D400700403196E2B6F2BBC2BFD01FD0A7F2B8D
:1036E4000130F8000310F00DF10DF20DF30DF80B9D
:1036F400742B0130F8007808FD07F31F822B832B0D
:10370400722B0130F8000310F90DFA0DFB0DFC0DBE
:10371400F80B852B73087702031D9A2B7208760227
:10372400031D9A2B71087502031D9A2B70087402ED
:10373400031C9D2B9E2BAD2B7008F4027108031CF7
:10374400710FF5027208031C720FF6027308031C52
:10375400730FF702791401300310F30CF20CF10C1F
:10376400F00CFF3E031DAE2B0130FD02031DBB2BED
:10377400BC2B832B7C08F3007B08F2007A08F10051
:103784007908F000080083120313A101F81FCB2B62
:10379400CC2BD32BF709F809F70A0319F80AA1016E
:1037A400A10AFA1FD62BD72BE02BF909FA09F90A3B
:1037B4000319FA0A0130FB007B08A106A201A30148
:1037C400770878040319E72BE82B1F2CA001A00A23
:1037D400F62B01300310F70DF80DFF3E031DEC2B03
:1037E4000130FB007B08A007F81FF92BFA2BEB2B09
:1037F40001300310A20DA30DFF3E031DFB2B78081F
:103804007A02031D072C77087902031C0A2C0B2C5F
:10381400122C7708F9027808031CFA03FA0222141E
:1038240001300310F80CF70CFF3E031D132C01307C
:10383400A002031D1E2C1F2CFA2B21080319232C74
:10384400242C292CA209A309A20A0319A30A2308D8
:10385400F8002208F7000800031083120313550D23
:10386400560DD7005708DD005D08031D3A2C3B2C8C
:10387400442C0030D6000030D5000030D400003095
:10388400D300A92C5308D7005408D8005508D900F0
:103894005608DA001F300310DA0CD90CD80CD70CF8
:1038A400FF3E031D4D2C5708DB005B08DC00D517D9
:1038B400FF30D305FF30D405FF30D5050030D605E1
:1038C4009630DD02DD1F672C682C822C5D08803A5F
:1038D400973E03186E2C6F2C702C3B2C0130031078
:1038E400D60CD50CD40CD30CFF3E031D712C013027
:1038F400D7005708DD07031D802C812C702C992CD0
:1039040020305D02031C872C882C942C3B2C013026
:10391400D7000310D30DD40DD50DD60DD70B8B2C9A
:103924000130DD025D08031D982C992C892C5C085C
:1039340003199D2C9E2CA92CD309D409D509D60989
:10394400D30A0319D40A0319D50A0319D60A08009D
:1039540083120313A00020080319B12CB22CC62C27
:10396400F71FB52CB62CC62C7409A2007509A30048
:103974007609A4007709A500A20A0319A30A03196A
:10398400A40A0319A50ACE2C7708A5007608A4007A
:103994007508A3007408A2007708760475047404FB
:1039A400031DD52CD62CDF2C0030F7000030F60098
:1039B4000030F5000030F400652D9630F8007808EA
:1039C400A100F12C0130F8007808A10701300310A0
:1039D400A50CA40CA30CA20CFF3E031DE92CFE3085
:1039E4002505031DF62CF72CE42C132D0130F800CB
:1039F4007808A1070130A207003003180130A3079B
:103A0400003003180130A407003003180130A50763
:103A140001300310A50CA40CA30CA20CFF3E031D43
:103A24000B2DFF302505031D182D192DF82C252DE0
:103A34000130A1020130F8000310A20DA30DA40D62
:103A4400A50DF80B1E2DA41B282D292D2F2D02307A
:103A5400210203182E2D2F2D1A2D2118322D332D2E
:103A64003B2DFF30A205FF30A3057F30A405FF30B6
:103A7400A5050310A10C2108F800F901FA01FB01C6
:103A840018300310F80DF90DFA0DFB0DFF3E031D60
:103A9400432D7808A2047908A3047A08A4047B08B7
:103AA400A50420080319572D582D5D2DF71F5B2DF4
:103AB4005C2D5D2DA5172508F7002408F6002308C2
:103AC400F5002208F40008007008F8007108F900F5
:103AD4007208FA000310790D7A0DFB007B0883123B
:103AE4000313A5002508031D782D792D822D0030A0
:103AF400F3000030F2000030F1000030F000222E1C
:103B04007408F8007508F9007608FA000310790DB6
:103B14007A0DFB007B08A4002408031D922D932D2D
:103B2400942D792DF117FF30F005FF30F1050030A9
:103B3400F205F517FF30F405FF30F5050030F60502
:103B44000030A3000030A2000030A1000030A0002B
:103B54007F30A50298302407F8007808A5021830B1
:103B6400F8007808A4000130F8000310A00DA10D9E
:103B7400A20DA30DF80BB72D76087202031DC82DF4
:103B840075087102031DC82D74087002031CCB2D27
:103B9400CC2DD72D7408F0027508031C750FF102A3
:103BA4007608031C760AF202201401300310F00D8B
:103BB400F10DF20DFF3E031DD82D0130A402031DAB
:103BC400E42DE52DB52DA51FE82DE92D032E25089F
:103BD400803A973E0318EF2DF02DF12D792D013009
:103BE4000310A30CA20CA10CA00CFF3E031DF22D8C
:103BF4000130F8007808A507031D012E022EF12DCF
:103C04001A2E18302502031C082E092E152E792D84
:103C14000130F8000310A00DA10DA20DA30DF80BA7
:103C24000C2E0130A5022508031D192E1A2E0A2E6A
:103C34002308F3002208F2002108F1002008F00014
:103C440008008312031347088039C8004808D100CC
:103C54004708C8004807C9004908D800C61F332EC2
:103C6400342E352E581458080319392E3A2E4A2E5C
:103C7400580A031D3E2E3F2E472E0030C700003049
:103C8400C6000030C5000030C400C617C701522E5C
:103C94000030C7000030C6000030C5000030C4004A
:103CA40043088039C8004808D1064308C8004807BB
:103CB400C9004908D900C21F602E612E622E591412
:103CC40059080319662E672E772E590A031D6B2E89
:103CD4006C2E742E0030C3000030C2000030C100CE
:103CE4000030C000C217C3017F2E0030C300003073
:103CF400C2000030C1000030C00043084204410447
:103D04004004031D862E872EA02E0030C7000030ED
:103D1400C6000030C5000030C4008030C6047F30C7
:103D2400C7045108C8004808C7044708C300460828
:103D3400C2004508C1004408C000FF2F5808031DF5
:103D4400A42EA52EAE2E0030C3000030C2000030D9
:103D5400C1000030C000FF2F5808C800C90149083D
:103D6400CB0059084802CA00031CCB034A087F3E13
:103D7400D2004B080318013E003ED3004708D00090
:103D84004608CF004508CE004408CD000030C700E7
:103D94000030C6000030C5000030C4000030D70039
:103DA4000030D6000030D5000030D400D901242FD3
:103DB40059080319DE2EDF2EFF2E0130C800031030
:103DC400CD0DCE0DCF0DD00DC80BE12E0130C800A6
:103DD4000310C40DC50DC60DC70DC80BEA2ED71FA1
:103DE400F42EF52EF62E44140130C8000310D40D21
:103DF400D50DD60DD70DC80BF82E43085002031D60
:103E04000D2F42084F02031D0D2F41084E02031DC2
:103E14000D2F40084D02031C102F112F202F571770
:103E24004008CD024108031C410FCE024208031C86
:103E3400420FCF024308031C430FD0020130C800D5
:103E44004808D9071A305902031C292F2A2FDA2EC1
:103E540050084F044E044D040319312F322F512FB3
:103E64005414512F0130C8000310C40DC50DC60DE4
:103E7400C70DC80B362FD71F402F412F422F441494
:103E84000130C8000310D40DD50DD60DD70DC80BC5
:103E9400442FFF30D2070318D30AFF30D307C61FBD
:103EA400542F552F342FD901D71F592F5A2F762F1E
:103EB400FF305405C800FF305505C900FF305605D2
:103EC400CA007F305705CB004B084A044904480414
:103ED40003196D2F6E2F712FD901D90A762F441C27
:103EE400742F752F762F6E2F590803197A2F7B2F75
:103EF400AC2F0130C407003003180130C50700306F
:103F040003180130C607003003180130C707471CE7
:103F14008C2F8D2FAC2F4408C8004508C9004608D3
:103F2400CA004708CB000130CC004B0DCB0CCA0CA7
:103F3400C90CC80CCC0B972F4B08C7004A08C60005
:103F44004908C5004808C4000130D2070318D30A41
:103F54000030D3075308803AFF0080307F02031DEE
:103F6400B52FFF305202031CB82FB92FC72FFF30D3
:103F740083120313D2000030D3000030C700003096
:103F8400C6000030C5000030C40083120313530878
:103F9400803AFF0080307F02031DD22F013052028D
:103FA4000318D52FD62FE32F83120313D201D30185
:103FB4000030C7000030C6000030C5000030C40027
:103FC400D101831203135208C8004808D800581CB2
:103FD400EC2FED2FEF2FC617F32F7F30C8004808C2
:103FE400C6055808C8000310480CC9004908C70092
:0C3FF4005108C8004808C704972E0800B8
:00000001FF
